:04000000FEEFFFF020
:10FE6400009E2A01000000EA1C01000000000000BE
:10FE740000000000000078290100000000000000DC
:10FE8400000000000000000000000002C000FF00AD
:10FE940002C000FF0044697361626C65640000384D
:10FEA4002062697473000000003136206269747343
:10FEB4000000005354415455530909203D20307823
:10FEC400253032782052585F44523D2578205458CA
:10FED4005F44533D2578204D41585F52543D257869
:10FEE4002052585F505F4E4F3D25782054585F464E
:10FEF400554C4C3D25780D0A003D3D3D3D3D3D3D75
:10FF04003D3D3D3D3D3D3D3D3D204E524620436FF0
:10FF14006E66696775726174696F6E203D3D3D3D23
:10FF24003D3D3D3D3D3D3D3D3D3D3D3D0A00526530
:10FF34007472616E736D697409203D2025642075A7
:10FF4400730A00435243204C656E67746809203D70
:10FF54002025730A0044617461205261746509208C
:10FF64003D2025730A00504120506F7765720920A7
:10FF74003D2025730A0044594E50442F46454154B0
:10FF84005552450052585F414444525F50302D3120
:10FF94000052585F414444525F50322D350052584C
:10FFA4005F50575F50302D3600454E5F52584144E4
:10FFB40044520054585F41444452090052465F532E
:10FFC4004554555000434F4E464947090020307868
:10FFD4002530327800286E756C6C2900454E5F41DF
:10FFE40041090052465F43480900464748494A00D0
:0BFFF400257309203D0020307800003C
:020000040001F9
:100000003650800B3F6E36503624416E35AE0BEFC6
:1000100080F00DEF80F00EEF80F041804150D8B4B9
:1000200014EF80F016EF80F02AEF80F04128D8A47A
:100030001CEF80F01EEF80F026EF80F0000E336E94
:10004000000E346E000E356E000E366E358E366A3A
:1000500032EF80F0000E336E000E346E000E356EFF
:10006000000E366E3A50800B406E3F504018D8B4A8
:100070003CEF80F03EEF80F03FEF80F03F8C3A5055
:100080003A24406E39AE47EF80F049EF80F04AEFF6
:1000900080F040804050D8B450EF80F052EF80F0B4
:1000A00066EF80F04028D8A458EF80F05AEF80F037
:1000B00062EF80F0000E376E000E386E000E396E63
:1000C000000E3A6E398E3A6A6EEF80F0000E376E8F
:1000D000000E386E000E396E000E3A6E4150405CD4
:1000E000D8B075EF80F077EF80F09EEF80F03FACF6
:1000F0007CEF80F07EEF80F080EF80F0800E3F1A82
:1001000041C542F540C541F542C540F533C542F50C
:1001100037C533F542C537F534C542F538C534F532
:1001200042C538F535C542F539C535F542C539F50D
:1001300036C542F53AC536F542C53AF5426A4150F0
:1001400040C53BF53C6A3B5E000E3C5A3CBEB2EFFC
:1001500080F03C5009E11A0E3B5CD8A0B2EF80F071
:10016000B4EF80F0EBEF80F03350341035103610E0
:10017000D8A4BDEF80F0C0EF80F0010EC1EF80F099
:10018000000E426E000E336E000E346E000E356EA1
:10019000000E366E40C541F5F4EF80F042A0D3EF7B
:1001A00080F0D5EF80F0DBEF80F0D890423001098D
:1001B000426EDDEF80F0D890423233A0E2EF80F063
:1001C000E4EF80F0E5EF80F0428E3634363235329F
:1001D00034323332412A4050415CD8A0F2EF80F0F3
:1001E000F4EF80F0CEEF80F03FBCF9EF80F0FBEF52
:1001F00080F03BEF81F04150D8A401EF81F003EF94
:1002000081F00DEF81F0000E336E000E346E000EA3
:10021000356E000E366E5AEF82F037503326385066
:100220003422395035223A50362236A01AEF81F066
:100230001CEF81F0C8EF81F042A021EF81F023EFA5
:1002400081F029EF81F0D89042300109426E2BEF06
:1002500081F0D890423233A030EF81F032EF81F05C
:1002600033EF81F0428E3634363235323432333227
:10027000412AC8EF81F03750335C38503458395038
:1002800035583650800A3B6E3A50800A3B58D8B0F9
:100290004CEF81F04EEF81F079EF81F03350375C15
:1002A0003B6E345038583C6E355039583D6E3650A0
:1002B0003A583E6EFF0E3B24336EFF0E3C20346EE8
:1002C000FF0E3D20356EFF0E3E20366E800E3F1A2B
:1002D000426C4250D8A46FEF81F071EF81F081EF52
:1002E00081F0010E3326000E34223522362281EFB2
:1002F00081F03750335E3850345A3950355A3A50BD
:10030000365A3350341035103610D8A48AEF81F0A5
:100310008CEF81F0C1EF81F04250D8A492EF81F0D0
:1003200094EF81F0C1EF81F0000E336E000E346E59
:10033000000E356E000E366E5AEF82F0D8903336CE
:1003400034363536363642AEA8EF81F0AAEF81F06A
:10035000ABEF81F0338042A0B0EF81F0B2EF81F0DB
:10036000B6EF81F0D8804236B8EF81F0D8904236AF
:100370004150D8B4BEEF81F0C0EF81F0C1EF81F001
:10038000410635AEC6EF81F0C8EF81F09EEF81F0F7
:10039000406A42AECEEF81F0D0EF81F0E8EF81F01D
:1003A00042C53BF57F0E3B16D8B4D9EF81F0DBEFA9
:1003B00081F0DFEF81F0010E406EE8EF81F033A0B5
:1003C000E4EF81F0E6EF81F0E8EF81F0DBEF81F020
:1003D0004050D8B4EEEF81F0F0EF81F01BEF82F0E7
:1003E000010E3326000E34223522362236A0FBEFD2
:1003F00081F0FDEF81F01BEF82F033C53BF534C592
:100400003CF535C53DF536C53EF53E343E323D3210
:100410003C323B323BC533F53CC534F53DC535F583
:100420003EC536F54128D8B418EF82F01AEF82F0B5
:100430001BEF82F0412A4128D8B421EF82F023EF4C
:1004400082F02BEF82F04150D8A429EF82F02BEFFD
:1004500082F03CEF82F0000E336E000E346E000E20
:10046000356E000E366E4150D8A439EF82F03BEF66
:1004700082F03CEF82F03F6A41A041EF82F043EF0F
:1004800082F046EF82F0358E47EF82F0359ED890AD
:100490004130366E3FAE4FEF82F051EF82F052EFB7
:1004A00082F0368E33C533F534C534F535C535F5B0
:1004B00036C536F512001D50800B266E1D501D24CA
:1004C0002C6E1CAE66EF82F068EF82F069EF82F06E
:1004D0002C802C50D8B46FEF82F071EF82F084EF53
:1004E00082F02C28D8A477EF82F079EF82F081EFA8
:1004F00082F0000E1A6E000E1B6E000E1C6E000EB7
:100500001D6E1C8E8CEF82F0000E1A6E000E1B6E9C
:10051000000E1C6E000E1D6E2150800B261A2150FD
:1005200021242B6E20AE97EF82F099EF82F09AEFA4
:1005300082F02B802B50D8B4A0EF82F0A2EF82F093
:10054000B5EF82F02B28D8A4A8EF82F0AAEF82F0B2
:10055000B2EF82F0000E1E6E000E1F6E000E206EB7
:10056000000E216E208EBDEF82F0000E1E6E000E7A
:100570001F6E000E206E000E216E2B50D8B4C3EFFC
:1005800082F0C5EF82F0CDEF82F02C50D8A4CBEFF3
:1005900082F0CDEF82F0D7EF82F0000E1A6E000EDF
:1005A0001B6E000E1C6E000E1D6E6DEF84F0205051
:1005B0001A02F3C431F5F4C432F53150276E286ABB
:1005C000296A2A6A32502D6E2E6A2F6A306A1F50AD
:1005D0001B02F3C431F5F4C432F531502726000E66
:1005E000282229222A2232502D26000E2E222F22A6
:1005F00030221E501C02F3C431F5F4C432F53150E0
:100600002726000E282229222A2232502D26000ECB
:100610002E222F22302229C52AF528C529F527C5E3
:1006200028F5276A1E501B02F3C431F5F4C432F5D5
:100630003150272632502822000E2922000E2A226D
:100640001F501A02F3C431F5F4C432F53150272695
:1006500032502822000E2922000E2A2229C52AF50E
:1006600028C529F527C528F5276A1E501A02F3C4A4
:1006700031F5F4C432F53150272632502822000ECD
:100680002922000E2A2220501B02F3C431F5F4C4A3
:1006900032F531502D2632502E22000E2F22000E20
:1006A00030221F501C02F3C431F5F4C432F531502E
:1006B0002D2632502E22000E2F22000E30222050E6
:1006C0001C02F3C431F5F4C432F53150226E3250BD
:1006D000236E246A256A24C525F523C524F522C581
:1006E00023F5226A22502D2623502E2224502F2219
:1006F0002550302227C522F528C523F529C524F524
:100700002AC525F5190E8AEF83F0D89025322432B8
:1007100023322232E82E85EF83F022502D262350FB
:100720002E2224502F222550302229C52AF528C5F3
:1007300029F527C528F5276A2B502CC522F5236AF1
:100740002226000E2322820E2224316EFF0E232049
:10075000326EC0EF83F0D8902D362E362F363036DD
:100760002AAEB5EF83F0B7EF83F0B8EF83F02D80BA
:10077000D8902736283629362A363106D8A03206B0
:100780002FAEC5EF83F0C7EF83F0ABEF83F02B6A9A
:100790002AAECDEF83F0CFEF83F0F3EF83F0FF0EBF
:1007A0002714226EFF0E2814236EFF0E2914246EC8
:1007B0007F0E2A14256E2250231024102510D8B441
:1007C000E4EF83F0E6EF83F0EAEF83F0010E2B6EA7
:1007D000F3EF83F02DA0EFEF83F0F1EF83F0F3EF71
:1007E00083F0E6EF83F02B50D8B4F9EF83F0FBEF02
:1007F00083F01FEF84F0010E2D26000E2E222F22F3
:10080000302230A006EF84F008EF84F01FEF84F070
:100810002DC522F52EC523F52FC524F530C525F5A8
:100820002534253224322332223222C52DF523C528
:100830002EF524C52FF525C530F5314A322A32BEB2
:100840002AEF84F0325008E13128D8A02AEF84F052
:100850002CEF84F036EF84F0000E2D6E000E2E6E1D
:10086000800E2F6E7F0E306E63EF84F032BE43EF4A
:1008700084F0325006E13104D8B041EF84F043EF08
:1008800084F04EEF84F0000E2D6E000E2E6E000EE2
:100890002F6E000E306E266A63EF84F031C52CF5A2
:1008A000FF0E2D16FF0E2E167F0E2F16000E301681
:1008B0002CA05DEF84F05FEF84F060EF84F02F8E6A
:1008C000D8902C30306E265030122DC51AF52EC51A
:1008D0001BF52FC51CF530C51DF5120029C5D9F42F
:1008E0002AC5DAF4DEC4F6F4DDC4F7F4000EF86EBF
:1008F0000800F550250AD8A480EF84F082EF84F038
:100900001FEF86F029C5D9F42AC5DAF4DE2A000ED5
:10091000DD22000E05019C6F000E9B6F9BC55EF5EE
:100920009D699E69336AB5EF84F05E8229C5D9F46A
:100930002AC5DAF4DE2A000EDD22B5EF84F0010EBE
:10094000336EB5EF84F029C5D9F42AC5DAF4DEC4D4
:10095000F6F4DDC4F7F4000EF86E0800F550300A26
:10096000D8B495EF84F09FEF84F03350D8B4BBEF48
:1009700084F0BDEF84F0A3EF84F029C501F52AC50A
:1009800002F52BC503F52CC504F5AAEC8DF001C5C5
:100990009BF502C59CF505019CBFD3EF84F0D1EF18
:1009A00084F0D8EF84F05E809B6D9C1FD8B09C2BA8
:1009B00029C5D9F42AC5DAF4DEC434F5DDC435F529
:1009C00034C5F6F435C5F7F4000EF86E0800F5509E
:1009D000640AD8B4EEEF84F0F0EF84F000EF85F015
:1009E00034C5F6F435C5F7F4000EF86E0800F5507E
:1009F000690AD8A4FEEF84F000EF85F02EEF85F0B1
:100A00002BC5D9F42CC5DAF4DFC42DF5020EDE2691
:100A1000DFC42EF5000EDD222DC5D9F42EC5DAF483
:100A2000DEC42FF5DDC430F5010E34242D6E000E2A
:100A300035202E6E29C5D9F42AC5DAF42DC5DEF489
:100A40002EC5DDF427C51AF528C51BF52FC51CF5E5
:100A500030C51DF5B3EC8AF035EF86F034C5F6F4F9
:100A600035C5F7F4000EF86E0800F550780AD8A4E2
:100A70003CEF85F03EEF85F07CEF85F02BC5D9F497
:100A80002CC5DAF4DFC42DF5020EDE26DFC42EF508
:100A9000000EDD222DC5D9F42EC5DAF4DEC42FF503
:100AA000DDC430F5010E34242D6E000E35202E6E7F
:100AB00029C5D9F42AC5DAF42DC5DEF42EC5DDF436
:100AC0006EEF85F027C51AF528C51BF52FC51CF557
:100AD00030C51DF5A6EC8CF035EF86F034C5F6F484
:100AE00035C5F7F4000EF86E0800F550780AD8B452
:100AF00062EF85F07CEF85F0336A29C5D9F42AC509
:100B0000DAF4DEC4F6F4DDC4F7F4000EF86E080083
:100B1000F550730AD8A48FEF85F091EF85F09CEF24
:100B200085F029C5D9F42AC5DAF4DE2A000EDD22C3
:100B3000010E336EF2EF85F029C5D9F42AC5DAF437
:100B4000DEC4F6F4DDC4F7F4000EF86E0800F550CC
:100B50006C0AD8A4AEEF85F0B0EF85F0F2EF85F027
:100B600029C5D9F42AC5DAF4DEC42DF5DDC42EF585
:100B7000010E2D26000E2E222DC5F6F42EC5F7F4FB
:100B8000000EF86E0800F5506C0AD8A4CAEF85F084
:100B9000CCEF85F0F2EF85F029C5D9F42AC5DAF457
:100BA000DEC42DF5DDC42EF5020E2D26000E2E22FC
:100BB0002DC5F6F42EC5F7F4000EF86E0800F550BA
:100BC000730AD8A4E6EF85F0E8EF85F0F2EF85F040
:100BD000030E29C5D9F42AC5DAF4DE26000EDD227B
:100BE00098EF85F03350D8B4F8EF85F0FAEF85F040
:100BF00016EF86F027C50AF528C50BF52BC5D9F4E5
:100C00002CC5DAF4DFC42DF5020EDE26DFC42EF586
:100C1000000EDD222DC5D9F42EC5DAF4DEC40CF5A4
:100C2000DDC40DF56EEC8BF035EF86F029C5D9F4F7
:100C30002AC5DAF4DE2A000EDD2235EF86F029C55A
:100C4000D9F42AC5DAF4DEC4F6F4DDC4F7F4000EF4
:100C5000F86E0800F550016E026A27C503F528C535
:100C600004F510EC8EF016EF86F012000450800BA5
:100C7000116E04500424186E03AE41EF86F043EF6A
:100C800086F044EF86F018801850D8B44AEF86F00A
:100C90004CEF86F060EF86F01828D8A452EF86F06B
:100CA00054EF86F05CEF86F0000E016E000E026ECF
:100CB000000E036E000E046E038E046A68EF86F069
:100CC000000E016E000E026E000E036E000E046E2A
:100CD0000850800B111A08500824196E07AE73EFE4
:100CE00086F075EF86F076EF86F019801950D8B44B
:100CF0007CEF86F07EEF86F092EF86F01928D8A47C
:100D000084EF86F086EF86F08EEF86F0000E056E9B
:100D1000000E066E000E076E000E086E078E086A43
:100D20009AEF86F0000E056E000E066E000E076E3E
:100D3000000E086E0550061007100810D8A4A3EF87
:100D400086F0A5EF86F0BDEF86F0000E016E000E76
:100D5000026E000E036E000E046E800E03127F0EF4
:100D600004121150041201C501F502C502F503C5B4
:100D700003F504C504F5FDEF87F01850D8A4C3EFC0
:100D800086F0C5EF86F0CFEF86F0000E016E000E04
:100D9000026E000E036E000E046EFDEF87F0195018
:100DA00018C509F50A6A095E000E0A5A7F0E092461
:100DB000126E000E0A20136E01C50DF502C50EF568
:100DC00003C50FF504C510F5000E016E000E026E8E
:100DD000000E036E000E046E000E146E000E156EF3
:100DE000000E166E000E176E196A2FEF87F019505D
:100DF000D8B4FDEF86F0FFEF86F016EF87F0D890BD
:100E00000D360E360F361036D890013602360336C0
:100E1000043617AE0EEF87F010EF87F011EF87F072
:100E20000180D890143615361636173605500D5CED
:100E300006500E5807500F5808501058D8A023EFEE
:100E400087F025EF87F02EEF87F0178C05500D5EA9
:100E500006500E5A07500F5A0850105A192A190EE8
:100E6000196435EF87F037EF87F0F7EF86F00D5014
:100E70000E100F101010D8B440EF87F042EF87F03B
:100E80005AEF87F014805AEF87F0D8900136023677
:100E90000336043617AE4FEF87F051EF87F052EF6D
:100EA00087F00180D890143615361636173612069C
:100EB000D8A0130603AE5FEF87F061EF87F045EF30
:100EC00087F0196A17AE67EF87F069EF87F08DEF4B
:100ED00087F0FF0E1414096EFF0E15140A6EFF0E34
:100EE00016140B6E7F0E17140C6E09500A100B109F
:100EF0000C10D8B47EEF87F080EF87F084EF87F096
:100F0000010E196E8DEF87F001A089EF87F08BEF4E
:100F100087F08DEF87F080EF87F01950D8B493EF0A
:100F200087F095EF87F0B9EF87F0010E0126000EEC
:100F300002220322042204A0A0EF87F0A2EF87F090
:100F4000B9EF87F001C509F502C50AF503C50BF530
:100F500004C50CF50C340C320B320A32093209C5C7
:100F600001F50AC502F50BC503F50CC504F5124AD7
:100F7000132A13BEC4EF87F0135008E11228D8A03B
:100F8000C4EF87F0C6EF87F0D1EF87F0000E136E45
:100F90001268000E016E000E026E000E036E000E4F
:100FA000046E13BEDEEF87F0135006E11204D8B0D2
:100FB000DCEF87F0DEEF87F0EBEF87F0000E136ECB
:100FC000000E126E000E016E000E026E000E036E19
:100FD000000E046E116A12C518F518A0F2EF87F022
:100FE000F4EF87F0F7EF87F0038EF8EF87F0039EBA
:100FF000D8901830046EB1EF86F01200FD0E3E6EF0
:10100000FE0E3F6ED2EC94F05CC50BF55DC50CF5A1
:101010005BEC95F032EC91F05CC54EF55DC54FF59B
:10102000880E506EFF0E516E0A0E526E020E536EF7
:1010300045EC90F05CC54EF55DC54FF5950E506ED4
:10104000FF0E516E0C0E526E040E536E87EC92F032
:101050005CC54EF55DC54FF5B70E506EFF0E516E77
:10106000100E526E010E536E45EC90F05CC54EF5BD
:101070005DC54FF5A20E506EFF0E516E110E526EF1
:10108000060E536E87EC92F05CC54EF55DC54FF5CC
:10109000E00E506EFF0E516E010E526E010E536E39
:1010A00087EC92F05CC54EF55DC54FF5AD0E506E08
:1010B000FF0E516E020E526E010E536E87EC92F0CF
:1010C0005CC54EF55DC54FF5E70E506EFF0E516ED7
:1010D000050E526E010E536E87EC92F05CC54EF514
:1010E0005DC54FF5C00E506EFF0E516E060E526E6E
:1010F000010E536E87EC92F05CC54EF55DC54FF561
:10110000C90E506EFF0E516E000E526E010E536EE0
:1011100087EC92F05CC54EF55DC54FF57A0E506ECA
:10112000FF0E516E1C0E526E020E536E87EC92F043
:10113000590E3E6EFF0E3F6E5CC50BF55DC50CF59E
:1011400008EC93F00501D46FD451080D800EF32400
:10115000406E050EF420416ED2EC94F0470E3E6EC8
:10116000FF0E3F6E5CC50BF55DC50CF51FEC92F0F4
:101170000501D46FD4510A0D990EF324406EFE0E72
:10118000F420416ED2EC94F06A0E3E6EFF0E3F6E7C
:101190005CC50BF55DC50CF51AEC95F00501D46F37
:1011A000D451080D600EF324406E050EF420416EFC
:1011B000D2EC94F05CC50BF55DC50CF537EC95F001
:1011C0000501DA6FDA51D46FD56B010ED427000E0A
:1011D000D523FA0ED403F3C4D6F5F4C4D7F5D5035A
:1011E000F350D727D6C5D8F5D7C5D9F5320E3E6E00
:1011F000FF0E3F6ED8C540F5D9C541F5D2EC94F04D
:101200001200096E0950D8B408EF89F00AEF89F08E
:101210002CEF89F004BE11EF89F00FEF89F02CEF6D
:1012200089F001C505F502C506F503C507F504C536
:1012300008F5051E061E071E081E052A000E0622BA
:101240000722082205C50BF506C50CF507C50DF5E7
:1012500008C50EF534EF89F001C50BF502C50CF594
:1012600003C50DF504C50EF501500210031004105E
:10127000D8A43DEF89F03FEF89F049EF89F0000EE7
:10128000016E000E026E000E036E000E046EDAEFA9
:1012900089F0960E0A6E53EF89F00A2AD8900E3222
:1012A0000D320C320B32000E0B14056E000E0C14B6
:1012B000066E000E0D14076EFE0E0E14086E05501D
:1012C000061007100810D8A468EF89F06AEF89F0BB
:1012D0004DEF89F078EF89F00A2A010E0B26000EF7
:1012E0000C220D220E22D8900E320D320C320B320F
:1012F000000E0B14056E000E0C14066E000E0D147D
:10130000076EFF0E0E14086E055006100710081029
:10131000D8A48DEF89F08FEF89F06CEF89F097EF0B
:1013200089F00A06D8900B360C360D360E360DBEF7
:101330009CEF89F09EEF89F0A6EF89F0020E0A601B
:10134000A4EF89F0A6EF89F091EF89F00AB0ABEF36
:1013500089F0ADEF89F0AEEF89F00D9ED8900A329A
:101360000AC505F5066A076A086A05C508F5076A29
:10137000066A056A05500B1206500C1207500D1232
:1013800008500E120950D8B4C8EF89F0CAEF89F09E
:10139000D2EF89F004BED1EF89F0CFEF89F0D2EF20
:1013A00089F00E8E0BC501F50CC502F50DC503F5D0
:1013B0000EC504F512004DC533F54EC534F54FC5C5
:1013C00035F550C536F5050E016E000E026E000EA5
:1013D000036E000E046E010E01EC89F001C537F5B5
:1013E00002C538F503C539F504C53AF500EC80F0BF
:1013F00033C54DF534C54EF535C54FF536C550F5F9
:10140000870E016E000E026E000E036E000E046E5B
:10141000010E01EC89F001C50FF502C510F503C5F9
:1014200011F504C512F54DC513F54EC514F54FC59C
:1014300015F550C516F528EC8DF0D8B022EF8AF0DE
:1014400024EF8AF037EF8AF0870E016E000E026EED
:10145000000E036E000E046E010E01EC89F001C552
:101460004DF502C54EF503C54FF504C550F54DC504
:101470000FF54EC510F54FC511F550C512F5370ED5
:10148000016E000E026E000E036E000E046E010E61
:1014900001EC89F001C513F502C514F503C515F576
:1014A00004C516F528EC8DF0D8B059EF8AF05BEF43
:1014B0008AF06EEF8AF0370E016E000E026E000E9B
:1014C000036E000E046E010E01EC89F001C54DF5AE
:1014D00002C54EF503C54FF504C550F5000E376E35
:1014E000000E386EC80E396E440E3A6E000E1E6E37
:1014F000000E1F6EC80E206E450E216E000E056E8A
:10150000000E066E340E076E430E086E4DC501F5D3
:101510004EC502F54FC503F550C504F536EC86F00F
:1015200001C51AF502C51BF503C51CF504C51DF55B
:101530005BEC82F01AC533F51BC534F51CC535F5D7
:101540001DC536F500EC80F033C543F534C544F5D0
:1015500035C545F536C546F523EC8CF043C54DF54C
:1015600044C54EF51200010E206E1DBEBAEF8AF082
:10157000BDEF8AF0010EBEEF8AF0000E236E9BC510
:1015800021F59CC522F52350D8B4C9EF8AF0CBEFE2
:101590008AF0E2EF8AF02106D8A022062350D8A4D0
:1015A000D4EF8AF0D6EF8AF0DCEF8AF0000E1F6EDF
:1015B0002B0E1E6EE0EF8AF0000E1F6E2D0E1E6EBB
:1015C0001EC523F5000E256E1F0E246E0501BE6B91
:1015D00018EF8BF02406D8A025069F0E2424D96E80
:1015E000050E2520DA6E1CC501F51DC502F5000E9D
:1015F000046E0A0E036E9CEC8FF001C507F502C560
:1016000008F5CBEC93F00750300FDF6E206A21060F
:10161000D8A022061CC501F51DC502F5000E046EFA
:101620000A0E036E3BEC8FF001C51CF502C51DF5DB
:1016300025BE23EF8BF0255008E12404D8A023EF2A
:101640008BF025EF8BF04AEF8BF01C501D10D8A4C7
:101650002CEF8BF02EEF8BF0EAEF8AF02050D8A41D
:1016600034EF8BF036EF8BF0EAEF8AF022BE41EFD9
:101670008BF0225008E12104D8A041EF8BF043EF1A
:101680008BF04AEF8BF05EB248EF8BF04AEF8BF0B5
:10169000EAEF8AF02350D8B450EF8BF052EF8BF082
:1016A0005DEF8BF02406D8A025069F0E2424D96E6A
:1016B000050E2520DA6E23C5DFF41AC511F51BC50A
:1016C00012F59F0E2424136E050E2520146E21C5DD
:1016D00015F522C516F596EC90F012000CC514F520
:1016E0000DC515F514501510D8A479EF8BF07BEFCC
:1016F0008BF07FEF8BF0D90E146EFF0E156E000E7F
:10170000176E000E166E87EF8BF0164A172A1650CA
:1017100014240E6E175015200F6E0EC5F6F40FC56B
:10172000F7F4000EF86E250EF76403D00800F550AC
:1017300005D0F6C4E9F4F7C4EAF4EF500009D8A4E0
:10174000A4EF8BF0A6EF8BF085EF8BF016C510F5AC
:1017500017C511F59BC512F59CC513F55EB0B3EF27
:101760008BF0B5EF8BF0F1EF8BF0C3EF8BF0000E49
:10177000026E200E016E0AC503F50BC504F510ECD0
:101780008EF0164A172A1250165C1750800A0E6EF9
:101790001350800A0E58D8A0D0EF8BF0D2EF8BF008
:1017A000B7EF8BF0F1EF8BF014C5F6F415C5F7F435
:1017B000000EF86E250EF76403D00800F55005D032
:1017C000F6C4E9F4F7C4EAF4EF500E6E0E50016E61
:1017D000026A0AC503F50BC504F510EC8EF0144A35
:1017E000152A1006D8A01106102806E11128D8A441
:1017F000FCEF8BF0FEEF8BF0D4EF8BF05EA003EFED
:101800008CF005EF8CF022EF8CF013EF8CF0000ED3
:10181000026E200E016E0AC503F50BC504F510EC2F
:101820008EF0164A172A1250165C1750800A0E6E58
:101830001350800A0E58D8A020EF8CF022EF8CF0C5
:1018400007EF8CF01200453446344C6E4C50D8A44F
:101850002CEF8CF02EEF8CF038EF8CF0000E436EF6
:10186000000E446E000E456E000E466EA5EF8CF025
:1018700043C547F544C548F545C549F546C54AF54C
:10188000200E48EF8CF0D8904A3249324832473225
:10189000E82E43EF8CF047504B6E458EFF0E4316FB
:1018A000FF0E4416FF0E4516000E4616960E4C5EB1
:1018B0004CBE5FEF8CF05DEF8CF075EF8CF04C5010
:1018C000800A970FD8B067EF8CF069EF8CF06BEF60
:1018D0008CF02EEF8CF0D8904632453244324332B1
:1018E0004C3E6BEF8CF08DEF8CF01F0E4C647BEF59
:1018F0008CF07DEF8CF085EF8CF02EEF8CF0D89093
:1019000043364436453646364C064C50D8A48BEF09
:101910008CF08DEF8CF07FEF8CF04B50D8B493EFC0
:101920008CF095EF8CF09DEF8CF0461E451E441E0A
:10193000436C000E44224522462243C543F544C56C
:1019400044F545C545F546C546F51200010E216E24
:101950009BC522F59CC523F5000E266E1F0E256E35
:101960000501BE6BE4EF8CF02506D8A026061C50BE
:101970000F0B246E0A0E2460C0EF8CF0C2EF8CF0C7
:10198000C6EF8CF0300E2426C8EF8CF0570E2426BC
:101990009F0E2524D96E050E2620DA6E24C5DFF4AD
:1019A000216A2206D8A023061CC51EF51DC51FF5F9
:1019B000040E206ED8901F321E32202EDAEF8CF0EB
:1019C0001EC51CF51FC51DF526BEF0EF8CF0265078
:1019D00009E1020E255CD8A0F0EF8CF0F2EF8CF05C
:1019E00017EF8DF01C501D10D8A4F9EF8CF0FBEF11
:1019F0008CF0B4EF8CF02150D8A401EF8DF003EF00
:101A00008DF0B4EF8CF023BE0EEF8DF0235008E183
:101A10002204D8A00EEF8DF010EF8DF017EF8DF0AF
:101A20005EB215EF8DF017EF8DF0B4EF8CF01AC5A4
:101A300011F51BC512F59F0E2524136E050E2620E9
:101A4000146E22C515F523C516F596EC90F012001C
:101A5000000E0F14176E000E1014186E800E111465
:101A6000196E7F0E12141A6E1750181019101A10D2
:101A7000D8A43DEF8DF03FEF8DF047EF8DF0000ED5
:101A80000F6E000E106E000E116E000E126E000E24
:101A90001314176E000E1414186E800E1514196EA0
:101AA0007F0E16141A6E1750181019101A10D8A499
:101AB0005CEF8DF05EEF8DF066EF8DF0000E136E33
:101AC000000E146E000E156E000E166E12AE6BEF49
:101AD0008DF06DEF8DF076EF8DF00F6C101ED8B09D
:101AE000102A111ED8B0112A800E125616AE7BEFA6
:101AF0008DF07DEF8DF086EF8DF0136C141ED8B055
:101B0000142A151ED8B0152A800E1656000E0F1A6C
:101B1000000E101A000E111A800E121A000E131A5F
:101B2000000E141A000E151A800E161A13500F5CB0
:101B3000145010581550115816501258D8B0A3EF21
:101B40008DF0A5EF8DF0A8EF8DF0D890A9EF8DF076
:101B5000D8801200000E096E000E086E01C5D9F47F
:101B600002C5DAF4DEC4F6F4DDC4F7F4000EF86E54
:101B70000800F5502A0AD8A4C0EF8DF0C2EF8DF00E
:101B8000F5EF8DF001C5D9F402C5DAF4DE2A000EB6
:101B9000DD2203C5D9F404C5DAF4DFC405F5020E6D
:101BA000DE26DFC406F5000EDD2205C5D9F406C524
:101BB000DAF4DEC408F5DDC409F50BEF8EF00A0E89
:101BC0000802F3C405F5F4C406F50902F35006262D
:101BD00007500524086E000E0620096E01C5D9F4D1
:101BE00002C5DAF4DE2A000EDD2201C5D9F402C5F1
:101BF000DAF4DEC4F6F4DDC4F7F4000EF86E080083
:101C0000F550D00F076E090E076409EF8EF00BEF49
:101C10008EF0DFEF8DF008C501F509C502F5120061
:101C200003500410D8B417EF8EF019EF8EF022EFA6
:101C30008EF003500410D8A420EF8EF022EF8EF027
:101C400027EF8EF00150CBEC95F074EF8EF020EE84
:101C500009F00350D9260450DA22DE50DE10D8B441
:101C600034EF8EF036EF8EF051EF8EF020EE09F06B
:101C70000350D9260450DA2210EE02F00350E12678
:101C80000450E222DE50E65CE650800A096EDE5027
:101C9000800A0958D8B04FEF8EF051EF8EF074EFF4
:101CA0008EF020EE02F00350D9260450DA22DEC472
:101CB00005F5DDC406F503C5D9F404C5DAF4DEC4C0
:101CC00007F5DDC408F505500724D96E0650082035
:101CD000DA6E01C5DFF420EE02F00350D92604507D
:101CE000DA22DE2A000EDD221200016E000184BF1E
:101CF0007CEF8EF07EEF8EF0D9EF8EF00150050D67
:101D00008F0EF324F66EFE0EF420F76EF86A000EC6
:101D1000F8220800F5C484F00150050D010EF326E9
:101D2000000EF4228F0EF324F66EFE0EF420F76EF2
:101D3000F86A000EF8220800F5C485F00150050D80
:101D4000020EF326000EF4228F0EF324F66EFE0E22
:101D5000F420F76EF86A000EF8220800F550FC0B2C
:101D6000866F0150050D030EF326000EF4228F0E30
:101D7000F324F66EFE0EF420F76EF86A000EF822D9
:101D80000800F5C489F00150050D040EF326000E7D
:101D9000F4228F0EF324F66EFE0EF420F76EF86A2E
:101DA000000EF8220800F5C48CF0C792848FD9EF9A
:101DB0008EF01200BF0E026E050E036EA6EC94F0BC
:101DC000BF0E0E6E050E0F6E590E106E080E116EC0
:101DD00072EC91F0BF0E0B6E050E0C6EEE0E0D6EDA
:101DE000FF0E0E6EE5EC90F00BC5E3F50CC5E4F5C7
:101DF0000501E351E411D8B400EF8FF002EF8FF04A
:101E00000AEF8FF0000E026E010E016E61EC94F08D
:101E100002EF8FF0BF0E0B6E050E0C6E000E0D6EF6
:101E2000E8EC91F0BF0E0B6E050E0C6E640E0D6E9D
:101E300090EC94F0BF0E5C6E050E5D6EFEEC87F0CC
:101E40002CEF8FF0BF0E076E050E086EDB0E096ECD
:101E5000050E0A6E18EC94F0BF0E0E6E050E0F6E96
:101E6000E5EC94F00009D8A438EF8FF03AEF8FF04A
:101E700022EF8FF01200066A04BE43EF8FF041EFAD
:101E80008FF049EF8FF0036C041ED8B0042A010EC6
:101E9000066E02BE50EF8FF04EEF8FF056EF8FF0D0
:101EA000016C021ED8B0022A010E061A000E086E3E
:101EB000000E076E03500410D8B461EF8FF063EF8B
:101EC0008FF08BEF8FF0010E056E6BEF8FF0D890D7
:101ED00003360436052A04AE70EF8FF072EF8FF0F0
:101EE00067EF8FF0D890073608360350015C045036
:101EF0000258D8A07EEF8FF080EF8FF085EF8FF043
:101F00000350015E0450025A0780D8900432033215
:101F1000052E72EF8FF00650D8B491EF8FF093EF4B
:101F20008FF097EF8FF0076C081ED8B0082A07C50E
:101F300001F508C502F51200066A02BEA4EF8FF093
:101F4000A2EF8FF0AAEF8FF0016C021ED8B0022A28
:101F5000010E066E04BEB1EF8FF0AFEF8FF0B5EF5C
:101F60008FF0036C041ED8B0042A03500410D8B4B8
:101F7000BCEF8FF0BEEF8FF0E2EF8FF0010E056E39
:101F8000C6EF8FF0D89003360436052A04AECBEFA7
:101F90008FF0CDEF8FF0C2EF8FF00350015C045053
:101FA0000258D8A0D6EF8FF0D8EF8FF0DCEF8FF08B
:101FB0000350015E0450025AD89004320332052EB9
:101FC000CDEF8FF00650D8B4E8EF8FF0EAEF8FF046
:101FD000EEEF8FF0016C021ED8B0022A01C501F5A8
:101FE00002C502F51200BE6ABF6AC06AC16AC26A4F
:101FF000C36A0401026B0A6B126B1A6B226B2A6BA9
:10200000C668C7688F0EC86EF70EC96E0F0ECA6E0F
:10201000FE0ECB6E0069F90E086F8F0E106FF70E73
:10202000186F070E206F2869016B096B116B196B14
:10203000216B296B03690B6913691B69070E236FF9
:102040002B6904690C6914691C690F0E246F2C69D3
:102050000201896B886B876B866B0A0E6B6F320E81
:10206000176F180E296F090E6A6F310E0A6F04017F
:10207000056B066B076B0D6B0E6B0F6B156B166BA1
:10208000176B256B266B276B1200F40E3E6EFF0E4E
:102090003F6E50C540F551C541F5D2EC94F086EF46
:1020A00090F0550E076E050E086E050E096E525023
:1020B00031EC94F0522AFA0E3E6EFF0E3F6ED2ECD7
:1020C00094F0000E5B6E000E5A6ED40E3E6EFF0E44
:1020D0003F6E550E5A24D96E050E5B20DA6EDF5026
:1020E000546E5450406E416AD2EC94F05A4A5B2AC6
:1020F0005BBE84EF90F05B5009E1050E5A5CD8A0FE
:1021000084EF90F086EF90F065EF90F0530653283F
:10211000D8A48DEF90F08FEF90F051EF90F0FA0E81
:102120003E6EFE0E3F6ED2EC94F012005EA09BEF6E
:1021300090F09DEF90F0A7EF90F013C50AF514C54D
:102140000BF511C50CF512C50DF553EC93F016BE49
:10215000AEEF90F0ACEF90F0B2EF90F0000E166E94
:10216000000E156E000E196E000E186EC4EF90F082
:10217000000E026E200E016E11C503F512C504F5A6
:1021800010EC8EF0184A192A1550185C1950800A64
:10219000176E1650800A1758D8A0D1EF90F0D3EFE1
:1021A00090F0B8EF90F05EB0D8EF90F0DAEF90F0EA
:1021B000E4EF90F013C50AF514C50BF511C50CF545
:1021C00012C50DF553EC93F01200000E186E000EC0
:1021D000176E0DC507F50EC508F5050E096E0B0E39
:1021E000FFEC93F0120E076E050E086E050E096ED9
:1021F0000B0E31EC94F0000E1A6E000E196E120EDA
:102200001924D96E050E1A20DA6E19500D24106E9D
:102210001A500E20116E10C5F6F411C5F7F4000E19
:10222000F86EDE500900F518D8B419EF91F01BEFE5
:1022300091F01DEF91F017681868194A1A2A1ABE12
:102240002BEF91F01A5009E1050E195CD8A02BEF85
:1022500091F02DEF91F0FFEF90F017C50BF518C539
:102260000CF512004F6EB70E3E6EFE0E3F6E4FC560
:1022700040F5416A4FBC3FEF91F042EF91F0010E03
:1022800043EF91F0000E426E436A4FBA4AEF91F06D
:102290004DEF91F0010E4EEF91F0000E446E456A45
:1022A0004FB855EF91F058EF91F0010E59EF91F0C2
:1022B000000E466E476A4FC54EF5D8904E32070E57
:1022C0004E164E50486E496A4FB069EF91F06CEF70
:1022D00091F0010E6DEF91F0000E4A6E4B6AD2EC58
:1022E00094F0120020EE01F00E50D9260F50DA22A1
:1022F00010C5DFF420EE02F00E50D9260F50DA227E
:1023000011C5DFF40EC50BF50FC50CF55BEC95F0B0
:1023100010C503F5050E43EC95F020EE02F00E50CB
:10232000D9260F50DA22DF50036E110E43EC95F0E0
:1023300020EE02F00E50D9260F50DA22DF50036E45
:10234000120E43EC95F00EC505F50FC506F5F8EC39
:1023500094F00EC503F50FC504F5BEEC95F0120020
:10236000000E0501D46F000ED56FB40ED66F420E6D
:10237000D76FD4C5D8F5D5C5D9F5D6C5DAF5D7C543
:10238000DBF5010EDC6FD80E576E050E586E49EC6A
:1023900094F0000E026E640E016E61EC94F0000E7B
:1023A0000501D46F000ED56F340ED66F420ED76F75
:1023B000D4C5D8F5D5C5D9F5D6C5DAF5D7C5DBF579
:1023C000DC6BD80E576E050E586E49EC94F0120077
:1023D000020E0D64EEEF91F0F0EF91F0F2EF91F05C
:1023E0001EEF92F00E0E076E050E086E010E096EBE
:1023F000060E31EC94F0020E0D18D8A402EF92F004
:1024000004EF92F011EF92F00E5020090E6E0E5074
:10241000F70B0E6E0EC503F5060E43EC95F01EEF9E
:1024200092F00E50D70B0E6E0D38E842F80B0E10DE
:102430000E6E0EC503F5060E43EC95F012000D6A04
:102440000F0E076E050E086E010E096E000E31ECC0
:1024500094F00F500C0B0F6E0E0E076E050E086EEB
:10246000010E096E010E31EC94F00FB63AEF92F0C6
:102470003CEF92F044EF92F00E50D8B442EF92F05D
:1024800044EF92F051EF92F00FA449EF92F04BEF2E
:1024900092F04FEF92F0020E0D6E51EF92F0010E9E
:1024A0000D6E0D501200606A020E616E626A636802
:1024B000F90E646E130E656E666A676A686A6A6A08
:1024C0006B6A7D0E6C6E6D6A7D0E6E6EB29CB29EF6
:1024D00067906792A29EA29C000E016E000E026E93
:1024E000000E036E9BEC95F0000E016E000E026E66
:1024F000000E036E94EC95F0000E016E000E026E5D
:10250000000E036EA2EC95F0800E696E1200F40EC0
:102510003E6EFF0E3F6E50C540F551C541F5D2EC01
:1025200094F0A6EF92F0540E076E050E086E010EA1
:10253000096E525031EC94F0522AD10E3E6EFF0ECD
:102540003F6E54C540F5416AD2EC94F053065328CF
:10255000D8A4ADEF92F0AFEF92F093EF92F0FA0EB5
:102560003E6EFE0E3F6ED2EC94F01200C0EF92F081
:10257000AA0EE82EFED700D0200E015E000E025AF1
:10258000025007E1200E015CD8B0C9EF92F0CBEF0A
:1025900092F0B8EF92F0D1EF92F0050EE82EFED750
:1025A00000000106D8A00206012806E10228D8A4EE
:1025B000DCEF92F0DEEF92F0CDEF92F0120038C532
:1025C0003CF539C53DF5F3EF92F036C527F537C533
:1025D00028F53C0E296E050E2A6E3AC52BF53BC533
:1025E0002CF56EEC84F03CC5F6F43DC5F7F4000E16
:1025F000F86E0800F5500009D8A401EF93F003EF3E
:1026000093F0E5EF92F0000E376E000E366E12007A
:102610000E0E076E050E086E010E096E060E31ECE9
:1026200094F00E50280B0E6E200E0E18D8A41BEF3F
:1026300093F01DEF93F021EF93F0020E0D6E2FEF4C
:1026400093F0080E0E18D8A428EF93F02AEF93F019
:102650002EEF93F0010E0D6E2FEF93F00D6A0D50DB
:102660001200C09A066A48EF93F003C5F6F404C559
:10267000F7F4000EF86E0800F550BCEC94F0034A35
:10268000042A000E026E0A0E016EB6EC92F0062AC3
:102690000550065CD8A04FEF93F051EF93F035EF63
:1026A00093F0C08A1200000E106E000E0F6E64EFE1
:1026B00093F00EC501F5026A0CC503F50DC504F5CE
:1026C00010EC8EF00F4A102A0F500A24D96E1050C9
:1026D0000B20DA6EDF500E6E0E50D8A472EF93F01E
:1026E00074EF93F059EF93F01200D69AAF90D68022
:1026F000000E016E000E026E000E036EB7EC95F038
:10270000B490D682000E016E000E026E000E036EB3
:10271000B0EC95F0B890D684000E016E000E026EFB
:10272000000E036EA9EC95F0120050415F4D494E2A
:10273000000050415F4C4F57000050415F484947EF
:10274000480050415F4D41580000314D62707300A8
:102750000000324D6270730000003235304B627001
:1027600073002A0EF66E270EF76E010EF86E01EE5C
:1027700060F110EE38F00900F5C4EEF4E550E150D8
:10278000FAE101EE98F12A0EEE6AE806FDE15E6AD2
:10279000000185EF95F008BED0EF93F0D2EF93F0F3
:1027A000D8EF93F007C507F508C508F5E4EF93F0F7
:1027B00007C509F508C50AF5091E0A1E094A0A2AAD
:1027C00009C507F50AC508F51200C09A066AF4EFB4
:1027D00093F0FF0EBCEC94F003C5D9F404C5DAF411
:1027E000DF6E034A042A062A0550065CD8A0FBEFD8
:1027F00093F0FDEF93F0E9EF93F0C08A12000A6EB8
:102800000950D8B406EF94F008EF94F017EF94F065
:10281000C09A0A501F0B2009BCEC94F007C503F5C1
:1028200008C504F509C505F531EC93F0C08A12001E
:10283000C09A610EBCEC94F009C503F50AC504F515
:1028400020EE02F00750D9260850DA22DF50056E3C
:10285000E5EC93F0C08A400E036E070E43EC95F052
:1028600012000A6E0950D8B438EF94F03AEF94F0A1
:1028700048EF94F0C09A0A501F0BBCEC94F007C5C7
:1028800003F508C504F509C505F5E5EC93F0C08A24
:10289000120057C5D9F458C5DAF4DEC451F5DEC4C8
:1028A00052F5DEC453F5DEC454F579EC94F020EE15
:1028B00004F05750D9265850DA22DF5029EC95F011
:1028C00012006BEF94F0150E036EC60EE82EFED7C5
:1028D000032EFCD700D00106D8A00206012806E18D
:1028E0000228D8A476EF94F078EF94F063EF94F098
:1028F000120051C54DF552C54EF553C54FF554C59F
:1029000050F5DBEC89F04DC555F54EC556F555C56E
:1029100001F556C502F5C4EC95F0C9EC95F012002E
:102920000E0E076E050E086E010E096E040E31ECD8
:1029300094F00E500F0B0E6E0D38F00B0E100E6E45
:102940000EC503F5040E43EC95F01200000E75EC75
:102950008EF020EE01F00250D9260350DA22730ED9
:10296000DF6E20EE02F00250D9260350DA22200E4C
:10297000DF6EC89AC8981200016E000187858651E3
:102980000309866F836B010E826F01C581F0B1A0D0
:10299000CCEF94F0CEEF94F0C7EF94F080C002F546
:1029A00002501200400E4C6E050E4D6E000E366E3B
:1029B000000E376E3EC538F53FC539F54C0E3A6E00
:1029C000050E3B6EDFEC92F012000EC50BF50FC545
:1029D0000CF55BEC95F0106E10ACF1EF94F0F3EFAA
:1029E00094F0F6EF94F0010EF7EF94F0000E120061
:1029F00005C5D9F406C5DAF4DF6AC0982B0E036E5C
:102A0000000E43EC95F0C088300E036E070E43ECC9
:102A100095F0120066EC95F0D68EDAEC8EF0920E00
:102A2000016E280E026E010E036E8DEC95F071ECB6
:102A300095F012000D0E076E050E086E010E096E60
:102A4000060E31EC94F0D8900D30030B0D6E0D5046
:102A50001200016E0150D8B430EF95F032EF95F0CE
:102A600035EF95F0C18636EF95F0C19612000D0E48
:102A7000076E050E086E010E096E040E31EC94F01F
:102A80000D380F0B1200046EC09A04501F0B200962
:102A9000BCEC94F00350BCEC94F0C08A1200A194FA
:102AA000A192A1900001846B040E856F866B896BE7
:102AB0008C6B878512000D0E076E050E086E010ED9
:102AC000096E070E31EC94F00D5012007BEC95F07E
:102AD000F3EC8FF053EC92F04FEC95F075EC93F033
:102AE0001200120E026EC00E016EC4EC95F0C9EC1D
:102AF00095F0C1961200600E0001AD6FAF6BB36B25
:102B0000080EB16FB06BAC6B12000AEC95F0B0EC34
:102B100091F087EF95F0FEEFFFF001C598F502C543
:102B200099F503C59AF5120001C5CEF502C5CFF59A
:102B300003C5D0F5120001C5D1F502C5D2F503C514
:102B4000D3F5120001C5CBF502C5CCF503C5CDF513
:102B5000120001C5C2F502C5C3F503C5C4F51200D4
:102B600001C5C5F502C5C6F503C5C7F5120001C507
:102B7000C8F502C5C9F503C5CAF51200C09AE20E30
:102B8000BCEC94F0C08A120001C56BF402506C6E6C
:082B900012006984120012001A
:04FFFC00B1EF93F0DE
:020000040020DA
:10000000FFFFFFFFFFFFFFFFFFFFFFFFFFFFFFFF00
:10001000FFFFFFFFFFFFFFFFFFFFFFFFFFFFFFFFF0
:10002000FFFFFFFFFFFFFFFFFFFFFFFFFFFFFFFFE0
:10003000FFFFFFFFFFFFFFFFFFFFFFFFFFFFFFFFD0
:020000040030CA
:080000008FFFF7FF9FFFFFFFD8
:01000900FFF7
:00000001FF
