:04000000FEEFFFF020
:10FE640000782A01000000001D01000000000000CD
:10FE74000000000000005229010000000000000002
:10FE8400000000000000000000000002C000FF00AD
:10FE940002C000FF0044697361626C65640000384D
:10FEA4002062697473000000003136206269747343
:10FEB4000000005354415455530909203D20307823
:10FEC400253032782052585F44523D2578205458CA
:10FED4005F44533D2578204D41585F52543D257869
:10FEE4002052585F505F4E4F3D25782054585F464E
:10FEF400554C4C3D25780D0A003D3D3D3D3D3D3D75
:10FF04003D3D3D3D3D3D3D3D3D204E524620436FF0
:10FF14006E66696775726174696F6E203D3D3D3D23
:10FF24003D3D3D3D3D3D3D3D3D3D3D3D0A00526530
:10FF34007472616E736D697409203D2025642075A7
:10FF4400730A00435243204C656E67746809203D70
:10FF54002025730A0044617461205261746509208C
:10FF64003D2025730A00504120506F7765720920A7
:10FF74003D2025730A0044594E50442F46454154B0
:10FF84005552450052585F414444525F50302D3120
:10FF94000052585F414444525F50322D350052584C
:10FFA4005F50575F50302D3600454E5F52584144E4
:10FFB40044520054585F41444452090052465F532E
:10FFC4004554555000434F4E464947090020307868
:10FFD4002530327800286E756C6C2900454E5F41DF
:10FFE40041090052465F43480900464748494A00D0
:0BFFF400257309203D0020307800003C
:020000040001F9
:100000004450800B4D6E445044244F6E43AE0BEF72
:1000100080F00DEF80F00EEF80F04F804F50D8B49D
:1000200014EF80F016EF80F02AEF80F04F28D8A46C
:100030001CEF80F01EEF80F026EF80F0000E416E86
:10004000000E426E000E436E000E446E438E446AF4
:1000500032EF80F0000E416E000E426E000E436ED5
:10006000000E446E4850800B4E6E4D504E18D8B462
:100070003CEF80F03EEF80F03FEF80F04D8C485039
:1000800048244E6E47AE47EF80F049EF80F04AEFCC
:1000900080F04E804E50D8B450EF80F052EF80F098
:1000A00066EF80F04E28D8A458EF80F05AEF80F029
:1000B00062EF80F0000E456E000E466E000E476E39
:1000C000000E486E478E486A6EEF80F0000E456E57
:1000D000000E466E000E476E000E486E4F504E5C8E
:1000E000D8B075EF80F077EF80F09EEF80F04DACE8
:1000F0007CEF80F07EEF80F080EF80F0800E4D1A74
:100100004FC550F54EC54FF550C54EF541C550F59C
:1001100045C541F550C545F542C550F546C542F5C2
:1001200050C546F543C550F547C543F550C547F59D
:1001300044C550F548C544F550C548F5506A4F5080
:100140004EC549F54A6A495E000E4A5A4ABEB2EFA8
:1001500080F04A5009E11A0E495CD8A0B2EF80F055
:10016000B4EF80F0EBEF80F04150421043104410A8
:10017000D8A4BDEF80F0C0EF80F0010EC1EF80F099
:10018000000E506E000E416E000E426E000E436E69
:10019000000E446E4EC54FF5F4EF80F050A0D3EF43
:1001A00080F0D5EF80F0DBEF80F0D890503001097F
:1001B000506EDDEF80F0D890503241A0E2EF80F039
:1001C000E4EF80F0E5EF80F0508E44344432433267
:1001D000423241324F2A4E504F5CD8A0F2EF80F0AD
:1001E000F4EF80F0CEEF80F04DBCF9EF80F0FBEF44
:1001F00080F03BEF81F04F50D8A401EF81F003EF86
:1002000081F00DEF81F0000E416E000E426E000E87
:10021000436E000E446E5AEF82F045504126465020
:100220004222475043224850442244A01AEF81F012
:100230001CEF81F0C8EF81F050A021EF81F023EF97
:1002400081F029EF81F0D89050300109506E2BEFEA
:1002500081F0D890503241A030EF81F032EF81F040
:1002600033EF81F0508E44344432433242324132D3
:100270004F2AC8EF81F04550415C465042584750E4
:1002800043584450800A496E4850800A4958D8B0B3
:100290004CEF81F04EEF81F079EF81F04150455CF9
:1002A000496E425046584A6E435047584B6E445030
:1002B00048584C6EFF0E4924416EFF0E4A20426E94
:1002C000FF0E4B20436EFF0E4C20446E800E4D1AE5
:1002D000506C5050D8A46FEF81F071EF81F081EF36
:1002E00081F0010E4126000E42224322442281EF7A
:1002F00081F04550415E4650425A4750435A48505B
:10030000445A4150421043104410D8A48AEF81F05F
:100310008CEF81F0C1EF81F05050D8A492EF81F0C2
:1003200094EF81F0C1EF81F0000E416E000E426E3D
:10033000000E436E000E446E5AEF82F0D8904136A4
:1003400042364336443650AEA8EF81F0AAEF81F032
:10035000ABEF81F0418050A0B0EF81F0B2EF81F0BF
:10036000B6EF81F0D8805036B8EF81F0D890503693
:100370004F50D8B4BEEF81F0C0EF81F0C1EF81F0F3
:100380004F0643AEC6EF81F0C8EF81F09EEF81F0DB
:100390004E6A50AECEEF81F0D0EF81F0E8EF81F001
:1003A00050C549F57F0E4916D8B4D9EF81F0DBEF7F
:1003B00081F0DFEF81F0010E4E6EE8EF81F041A099
:1003C000E4EF81F0E6EF81F0E8EF81F0DBEF81F020
:1003D0004E50D8B4EEEF81F0F0EF81F01BEF82F0D9
:1003E000010E4126000E42224322442244A0FBEF8C
:1003F00081F0FDEF81F01BEF82F041C549F542C568
:100400004AF543C54BF544C54CF54C344C324B32A0
:100410004A32493249C541F54AC542F54BC543F513
:100420004CC544F54F28D8B418EF82F01AEF82F08B
:100430001BEF82F04F2A4F28D8B421EF82F023EF30
:1004400082F02BEF82F04F50D8A429EF82F02BEFEF
:1004500082F03CEF82F0000E416E000E426E000E04
:10046000436E000E446E4F50D8A439EF82F03BEF3C
:1004700082F03CEF82F04D6A4FA041EF82F043EFF3
:1004800082F046EF82F0438E47EF82F0439ED89091
:100490004F30446E4DAE4FEF82F051EF82F052EF8D
:1004A00082F0448E41C541F542C542F543C543F54E
:1004B00044C544F512002B50800B346E2B502B2476
:1004C0003A6E2AAE66EF82F068EF82F069EF82F052
:1004D0003A803A50D8B46FEF82F071EF82F084EF37
:1004E00082F03A28D8A477EF82F079EF82F081EF9A
:1004F00082F0000E286E000E296E000E2A6E000E8D
:100500002B6E2A8E8CEF82F0000E286E000E296E64
:10051000000E2A6E000E2B6E2F50800B341A2F50B7
:100520002F24396E2EAE97EF82F099EF82F09AEF7A
:1005300082F039803950D8B4A0EF82F0A2EF82F077
:10054000B5EF82F03928D8A4A8EF82F0AAEF82F0A4
:10055000B2EF82F0000E2C6E000E2D6E000E2E6E8D
:10056000000E2F6E2E8EBDEF82F0000E2C6E000E50
:100570002D6E000E2E6E000E2F6E3950D8B4C3EFC4
:1005800082F0C5EF82F0CDEF82F03A50D8A4CBEFE5
:1005900082F0CDEF82F0D7EF82F0000E286E000ED1
:1005A000296E000E2A6E000E2B6E6DEF84F02E5019
:1005B0002802F3C43FF5F4C440F53F50356E366A67
:1005C000376A386A40503B6E3C6A3D6A3E6A2D503D
:1005D0002902F3C43FF5F4C440F53F503526000E20
:1005E00036223722382240503B26000E3C223D2244
:1005F0003E222C502A02F3C43FF5F4C440F53F508C
:100600003526000E36223722382240503B26000E77
:100610003C223D223E2237C538F536C537F535C573
:1006200036F5356A2C502902F3C43FF5F4C440F581
:100630003F50352640503622000E3722000E382219
:100640002D502802F3C43FF5F4C440F53F50352641
:1006500040503622000E3722000E382237C538F5BA
:1006600036C537F535C536F5356A2C502802F3C442
:100670003FF5F4C440F53F50352640503622000E79
:100680003722000E38222E502902F3C43FF5F4C45D
:1006900040F53F503B2640503C22000E3D22000ECC
:1006A0003E222D502A02F3C43FF5F4C440F53F50DA
:1006B0003B2640503C22000E3D22000E3E222E5092
:1006C0002A02F3C43FF5F4C440F53F50306E405069
:1006D000316E326A336A32C533F531C532F530C511
:1006E00031F5306A30503B2631503C2232503D22A9
:1006F00033503E2235C530F536C531F537C532F5B4
:1007000038C533F5190E8AEF83F0D8903332323280
:1007100031323032E82E85EF83F030503B263150B5
:100720003C2232503D2233503E2237C538F536C583
:1007300037F535C536F5356A39503AC530F5316A81
:100740003026000E3122820E30243F6EFF0E312003
:10075000406EC0EF83F0D8903B363C363D363E3697
:1007600038AEB5EF83F0B7EF83F0B8EF83F03B809E
:10077000D89035363636373638363F06D8A040065C
:100780003DAEC5EF83F0C7EF83F0ABEF83F0396A7E
:1007900038AECDEF83F0CFEF83F0F3EF83F0FF0EB1
:1007A0003514306EFF0E3614316EFF0E3714326E74
:1007B0007F0E3814336E3050311032103310D8B4ED
:1007C000E4EF83F0E6EF83F0EAEF83F0010E396E99
:1007D000F3EF83F03BA0EFEF83F0F1EF83F0F3EF63
:1007E00083F0E6EF83F03950D8B4F9EF83F0FBEFF4
:1007F00083F01FEF84F0010E3B26000E3C223D22C9
:100800003E223EA006EF84F008EF84F01FEF84F054
:100810003BC530F53CC531F53DC532F53EC533F538
:100820003334333232323132303230C53BF531C5B8
:100830003CF532C53DF533C53EF53F4A402A40BE42
:100840002AEF84F0405008E13F28D8A02AEF84F036
:100850002CEF84F036EF84F0000E3B6E000E3C6E01
:10086000800E3D6E7F0E3E6E63EF84F040BE43EF20
:1008700084F0405006E13F04D8B041EF84F043EFEC
:1008800084F04EEF84F0000E3B6E000E3C6E000EC6
:100890003D6E000E3E6E346A63EF84F03FC53AF55C
:1008A000FF0E3B16FF0E3C167F0E3D16000E3E1649
:1008B0003AA05DEF84F05FEF84F060EF84F03D8E4E
:1008C000D8903A303E6E34503E123BC528F53CC5B8
:1008D00029F53DC52AF53EC52BF5120029C5D9F4E9
:1008E0002AC5DAF4DEC4F6F4DDC4F7F4000EF86EBF
:1008F0000800F550250AD8A480EF84F082EF84F038
:100900001FEF86F029C5D9F42AC5DAF4DE2A000ED5
:10091000DD22000E05019C6F000E9B6F9BC55FF5ED
:100920009D699E69336AB5EF84F05F8229C5D9F469
:100930002AC5DAF4DE2A000EDD22B5EF84F0010EBE
:10094000336EB5EF84F029C5D9F42AC5DAF4DEC4D4
:10095000F6F4DDC4F7F4000EF86E0800F550300A26
:10096000D8B495EF84F09FEF84F03350D8B4BBEF48
:1009700084F0BDEF84F0A3EF84F029C501F52AC50A
:1009800002F52BC503F52CC504F5B5EC8DF001C5BA
:100990009BF502C59CF505019CBFD3EF84F0D1EF18
:1009A00084F0D8EF84F05F809B6D9C1FD8B09C2BA7
:1009B00029C5D9F42AC5DAF4DEC434F5DDC435F529
:1009C00034C5F6F435C5F7F4000EF86E0800F5509E
:1009D000640AD8B4EEEF84F0F0EF84F000EF85F015
:1009E00034C5F6F435C5F7F4000EF86E0800F5507E
:1009F000690AD8A4FEEF84F000EF85F02EEF85F0B1
:100A00002BC5D9F42CC5DAF4DFC42DF5020EDE2691
:100A1000DFC42EF5000EDD222DC5D9F42EC5DAF483
:100A2000DEC42FF5DDC430F5010E34242D6E000E2A
:100A300035202E6E29C5D9F42AC5DAF42DC5DEF489
:100A40002EC5DDF427C51AF528C51BF52FC51CF5E5
:100A500030C51DF5BEEC8AF035EF86F034C5F6F4EE
:100A600035C5F7F4000EF86E0800F550780AD8A4E2
:100A70003CEF85F03EEF85F07CEF85F02BC5D9F497
:100A80002CC5DAF4DFC42DF5020EDE26DFC42EF508
:100A9000000EDD222DC5D9F42EC5DAF4DEC42FF503
:100AA000DDC430F5010E34242D6E000E35202E6E7F
:100AB00029C5D9F42AC5DAF42DC5DEF42EC5DDF436
:100AC0006EEF85F027C51AF528C51BF52FC51CF557
:100AD00030C51DF5B1EC8CF035EF86F034C5F6F479
:100AE00035C5F7F4000EF86E0800F550780AD8B452
:100AF00062EF85F07CEF85F0336A29C5D9F42AC509
:100B0000DAF4DEC4F6F4DDC4F7F4000EF86E080083
:100B1000F550730AD8A48FEF85F091EF85F09CEF24
:100B200085F029C5D9F42AC5DAF4DE2A000EDD22C3
:100B3000010E336EF2EF85F029C5D9F42AC5DAF437
:100B4000DEC4F6F4DDC4F7F4000EF86E0800F550CC
:100B50006C0AD8A4AEEF85F0B0EF85F0F2EF85F027
:100B600029C5D9F42AC5DAF4DEC42DF5DDC42EF585
:100B7000010E2D26000E2E222DC5F6F42EC5F7F4FB
:100B8000000EF86E0800F5506C0AD8A4CAEF85F084
:100B9000CCEF85F0F2EF85F029C5D9F42AC5DAF457
:100BA000DEC42DF5DDC42EF5020E2D26000E2E22FC
:100BB0002DC5F6F42EC5F7F4000EF86E0800F550BA
:100BC000730AD8A4E6EF85F0E8EF85F0F2EF85F040
:100BD000030E29C5D9F42AC5DAF4DE26000EDD227B
:100BE00098EF85F03350D8B4F8EF85F0FAEF85F040
:100BF00016EF86F027C50AF528C50BF52BC5D9F4E5
:100C00002CC5DAF4DFC42DF5020EDE26DFC42EF586
:100C1000000EDD222DC5D9F42EC5DAF4DEC40CF5A4
:100C2000DDC40DF579EC8BF035EF86F029C5D9F4EC
:100C30002AC5DAF4DE2A000EDD2235EF86F029C55A
:100C4000D9F42AC5DAF4DEC4F6F4DDC4F7F4000EF4
:100C5000F86E0800F550016E026A27C503F528C535
:100C600004F51BEC8EF016EF86F012001250800B8C
:100C70001F6E12501224266E11AE41EF86F043EF24
:100C800086F044EF86F026802650D8B44AEF86F0EE
:100C90004CEF86F060EF86F02628D8A452EF86F05D
:100CA00054EF86F05CEF86F0000E0F6E000E106EB3
:100CB000000E116E000E126E118E126A68EF86F031
:100CC000000E0F6E000E106E000E116E000E126EF2
:100CD0001650800B1F1A16501624276E15AE73EF90
:100CE00086F075EF86F076EF86F027802750D8B42F
:100CF0007CEF86F07EEF86F092EF86F02728D8A46E
:100D000084EF86F086EF86F08EEF86F0000E136E8D
:100D1000000E146E000E156E000E166E158E166AFD
:100D20009AEF86F0000E136E000E146E000E156E14
:100D3000000E166E1350141015101610D8A4A3EF41
:100D400086F0A5EF86F0BDEF86F0000E0F6E000E68
:100D5000106E000E116E000E126E800E11127F0EBC
:100D600012121F5012120FC50FF510C510F511C544
:100D700011F512C512F5FDEF87F02650D8A4C3EF88
:100D800086F0C5EF86F0CFEF86F0000E0F6E000EF6
:100D9000106E000E116E000E126EFDEF87F02750E0
:100DA00026C517F5186A175E000E185A7F0E17240D
:100DB000206E000E1820216E0FC51BF510C51CF506
:100DC00011C51DF512C51EF5000E0F6E000E106E3A
:100DD000000E116E000E126E000E226E000E236EBB
:100DE000000E246E000E256E276A2FEF87F0275025
:100DF000D8B4FDEF86F0FFEF86F016EF87F0D890BD
:100E00001B361C361D361E36D8900F36103611365E
:100E1000123625AE0EEF87F010EF87F011EF87F056
:100E20000F80D890223623362436253613501B5C8B
:100E300014501C5815501D5816501E58D8A023EF9A
:100E400087F025EF87F02EEF87F0258C13501B5E7F
:100E500014501C5A15501D5A16501E5A272A190E86
:100E6000276435EF87F037EF87F0F7EF86F01B50F8
:100E70001C101D101E10D8B440EF87F042EF87F011
:100E80005AEF87F022805AEF87F0D8900F3610364D
:100E90001136123625AE4FEF87F051EF87F052EF43
:100EA00087F00F80D8902236233624362536200648
:100EB000D8A0210611AE5FEF87F061EF87F045EF14
:100EC00087F0276A25AE67EF87F069EF87F08DEF2F
:100ED00087F0FF0E2214176EFF0E2314186EFF0EFC
:100EE0002414196E7F0E25141A6E1750181019103D
:100EF0001A10D8B47EEF87F080EF87F084EF87F088
:100F0000010E276E8DEF87F00FA089EF87F08BEF32
:100F100087F08DEF87F080EF87F02750D8B493EFFC
:100F200087F095EF87F0B9EF87F0010E0F26000EDE
:100F300010221122122212A0A0EF87F0A2EF87F058
:100F4000B9EF87F00FC517F510C518F511C519F5DC
:100F500012C51AF51A341A3219321832173217C557
:100F60000FF518C510F519C511F51AC512F5204A67
:100F7000212A21BEC4EF87F0215008E12028D8A003
:100F8000C4EF87F0C6EF87F0D1EF87F0000E216E37
:100F90002068000E0F6E000E106E000E116E000E17
:100FA000126E21BEDEEF87F0215006E12004D8B09A
:100FB000DCEF87F0DEEF87F0EBEF87F0000E216EBD
:100FC000000E206E000E0F6E000E106E000E116EE1
:100FD000000E126E1F6A20C526F526A0F2EF87F0DC
:100FE000F4EF87F0F7EF87F0118EF8EF87F0119E9E
:100FF000D8902630126EB1EF86F01200FD0E3E6ED4
:10100000FE0E3F6EBFEC94F05CC50BF55DC50CF5B4
:1010100048EC95F03DEC91F05CC54EF55DC54FF5A3
:10102000880E506EFF0E516E0A0E526E020E536EF7
:1010300050EC90F05CC54EF55DC54FF5950E506EC9
:10104000FF0E516E0C0E526E040E536E5AEC92F05F
:101050005CC54EF55DC54FF5B70E506EFF0E516E77
:10106000100E526E010E536E50EC90F05CC54EF5B2
:101070005DC54FF5A20E506EFF0E516E110E526EF1
:10108000060E536E5AEC92F05CC54EF55DC54FF5F9
:10109000E00E506EFF0E516E010E526E010E536E39
:1010A0005AEC92F05CC54EF55DC54FF5AD0E506E35
:1010B000FF0E516E020E526E010E536E5AEC92F0FC
:1010C0005CC54EF55DC54FF5E70E506EFF0E516ED7
:1010D000050E526E010E536E5AEC92F05CC54EF541
:1010E0005DC54FF5C00E506EFF0E516E060E526E6E
:1010F000010E536E5AEC92F05CC54EF55DC54FF58E
:10110000C90E506EFF0E516E000E526E010E536EE0
:101110005AEC92F05CC54EF55DC54FF57A0E506EF7
:10112000FF0E516E1C0E526E020E536E5AEC92F070
:10113000590E3E6EFF0E3F6E5CC50BF55DC50CF59E
:10114000DBEC92F00501D46FD451080D800EF3242E
:10115000406E050EF420416EBFEC94F0470E3E6EDB
:10116000FF0E3F6E5CC50BF55DC50CF5F2EC91F022
:101170000501D46FD4510A0D990EF324406EFE0E72
:10118000F420416EBFEC94F06A0E3E6EFF0E3F6E8F
:101190005CC50BF55DC50CF507EC95F00501D46F4A
:1011A000D451080D600EF324406E050EF420416EFC
:1011B000BFEC94F05CC50BF55DC50CF524EC95F027
:1011C0000501DA6FDA51D46FD56B010ED427000E0A
:1011D000D523FA0ED403F3C4D6F5F4C4D7F5D5035A
:1011E000F350D727D6C5D8F5D7C5D9F5320E3E6E00
:1011F000FF0E3F6ED8C540F5D9C541F5BFEC94F060
:1012000012005BC541F55CC542F55DC543F55EC5A1
:1012100044F5050E016E000E026E000E036E000E08
:10122000046E010EE4EC89F001C545F502C546F5F2
:1012300003C547F504C548F500EC80F041C55BF5F2
:1012400042C55CF543C55DF544C55EF5B90E016E5A
:10125000000E026E000E036E000E046E010EE4EC32
:1012600089F001C50FF502C510F503C511F504C5D8
:1012700012F55BC513F55CC514F55DC515F55EC5C6
:1012800016F533EC8DF0D8B048EF89F04AEF89F0CD
:101290005DEF89F0B90E016E000E026E000E036E56
:1012A000000E046E010EE4EC89F001C55BF502C589
:1012B0005CF503C55DF504C55EF55BC50FF55CC562
:1012C00010F55DC511F55EC512F5050E016E000E37
:1012D000026E000E036E000E046E010EE4EC89F047
:1012E00001C513F502C514F503C515F504C516F5BA
:1012F00033EC8DF0D8B07FEF89F081EF89F094EF77
:1013000089F0050E016E000E026E000E036E000ED7
:10131000046E010EE4EC89F001C55BF502C55CF5D5
:1013200003C55DF504C55EF5000E456E000E466E04
:10133000C80E476E440E486E000E2C6E000E2D6EC9
:10134000C80E2E6E450E2F6EB90E016E000E026E87
:10135000000E036E000E046E010EE4EC89F001C570
:1013600013F502C514F503C515F504C516F55BC5DF
:101370000FF55CC510F55DC511F55EC512F536ECCF
:1013800086F00FC528F510C529F511C52AF512C537
:101390002BF55BEC82F028C541F529C542F52AC53D
:1013A00043F52BC544F500EC80F041C551F542C52D
:1013B00052F543C553F544C554F52EEC8CF051C598
:1013C0005BF552C55CF51200096E0950D8B4EBEF1D
:1013D00089F0EDEF89F00FEF8AF004BEF4EF89F0A9
:1013E000F2EF89F00FEF8AF001C505F502C506F5A9
:1013F00003C507F504C508F5051E061E071E081ED1
:10140000052A000E06220722082205C50BF506C58F
:101410000CF507C50DF508C50EF517EF8AF001C5E7
:101420000BF502C50CF503C50DF504C50EF501500D
:10143000021003100410D8A420EF8AF022EF8AF0E3
:101440002CEF8AF0000E016E000E026E000E036E8D
:10145000000E046EBDEF8AF0960E0A6E36EF8AF02B
:101460000A2AD8900E320D320C320B32000E0B14B9
:10147000056E000E0C14066E000E0D14076EFE0EA7
:101480000E14086E0550061007100810D8A44BEF74
:101490008AF04DEF8AF030EF8AF05BEF8AF00A2A8B
:1014A000010E0B26000E0C220D220E22D8900E32B9
:1014B0000D320C320B32000E0B14056E000E0C14A4
:1014C000066E000E0D14076EFF0E0E14086E05500A
:1014D000061007100810D8A470EF8AF072EF8AF097
:1014E0004FEF8AF07AEF8AF00A06D8900B360C3666
:1014F0000D360E360DBE7FEF8AF081EF8AF089EF50
:101500008AF0020E0A6087EF8AF089EF8AF074EFA2
:101510008AF00AB08EEF8AF090EF8AF091EF8AF0AD
:101520000D9ED8900A320AC505F5066A076A086A50
:1015300005C508F5076A066A056A05500B120650CC
:101540000C1207500D1208500E120950D8B4ABEF10
:101550008AF0ADEF8AF0B5EF8AF004BEB4EF8AF0FE
:10156000B2EF8AF0B5EF8AF00E8E0BC501F50CC50F
:1015700002F50DC503F50EC504F51200010E206E2F
:101580001DBEC5EF8AF0C8EF8AF0010EC9EF8AF0E0
:10159000000E236E9BC521F59CC522F52350D8B4BF
:1015A000D4EF8AF0D6EF8AF0EDEF8AF02106D8A0CA
:1015B00022062350D8A4DFEF8AF0E1EF8AF0E7EFAC
:1015C0008AF0000E1F6E2B0E1E6EEBEF8AF0000EDF
:1015D0001F6E2D0E1E6E1EC523F5000E256E1F0EEE
:1015E000246E0501BE6B23EF8BF02406D8A02506E0
:1015F0009F0E2424D96E050E2520DA6E1CC501F538
:101600001DC502F5000E046E0A0E036EA7EC8FF0E6
:1016100001C507F502C508F59EEC93F00750300FA1
:10162000DF6E206A2106D8A022061CC501F51DC563
:1016300002F5000E046E0A0E036E46EC8FF001C533
:101640001CF502C51DF525BE2EEF8BF0255008E1D7
:101650002404D8A02EEF8BF030EF8BF055EF8BF0F9
:101660001C501D10D8A437EF8BF039EF8BF0F5EF3D
:101670008AF02050D8A43FEF8BF041EF8BF0F5EFCC
:101680008AF022BE4CEF8BF0225008E12104D8A052
:101690004CEF8BF04EEF8BF055EF8BF05FB253EFCA
:1016A0008BF055EF8BF0F5EF8AF02350D8B45BEF59
:1016B0008BF05DEF8BF068EF8BF02406D8A0250649
:1016C0009F0E2424D96E050E2520DA6E23C5DFF483
:1016D0001AC511F51BC512F59F0E2424136E050EB5
:1016E0002520146E21C515F522C516F5A1EC90F044
:1016F00012000CC514F50DC515F514501510D8A41D
:1017000084EF8BF086EF8BF08AEF8BF0D90E146E9E
:10171000FF0E156E000E176E000E166E92EF8BF018
:10172000164A172A165014240E6E175015200F6EE5
:101730000EC5F6F40FC5F7F4000EF86E250EF7642B
:1017400003D00800F55005D0F6C4E9F4F7C4EAF474
:10175000EF500009D8A4AFEF8BF0B1EF8BF090EF12
:101760008BF016C510F517C511F59BC512F59CC574
:1017700013F55FB0BEEF8BF0C0EF8BF0FCEF8BF09A
:10178000CEEF8BF0000E026E200E016E0AC503F53F
:101790000BC504F51BEC8EF0164A172A1250165C86
:1017A0001750800A0E6E1350800A0E58D8A0DBEF37
:1017B0008BF0DDEF8BF0C2EF8BF0FCEF8BF014C5FC
:1017C000F6F415C5F7F4000EF86E250EF76403D095
:1017D0000800F55005D0F6C4E9F4F7C4EAF4EF5078
:1017E0000E6E0E50016E026A0AC503F50BC504F5B4
:1017F0001BEC8EF0144A152A1006D8A011061028EA
:1018000006E11128D8A407EF8CF009EF8CF0DFEF88
:101810008BF05FA00EEF8CF010EF8CF02DEF8CF0C2
:101820001EEF8CF0000E026E200E016E0AC503F54D
:101830000BC504F51BEC8EF0164A172A1250165CE5
:101840001750800A0E6E1350800A0E58D8A02BEF46
:101850008CF02DEF8CF012EF8CF0120053345434D6
:101860005A6E5A50D8A437EF8CF039EF8CF043EF12
:101870008CF0000E516E000E526E000E536E000E74
:10188000546EB0EF8CF051C555F552C556F553C5A1
:1018900057F554C558F5200E53EF8CF0D8905832B8
:1018A000573256325532E82E4EEF8CF05550596E65
:1018B000538EFF0E5116FF0E5216FF0E5316000EDA
:1018C0005416960E5A5E5ABE6AEF8CF068EF8CF092
:1018D00080EF8CF05A50800A970FD8B072EF8CF0DE
:1018E00074EF8CF076EF8CF039EF8CF0D8905432A6
:1018F0005332523251325A3E76EF8CF098EF8CF0E0
:101900001F0E5A6486EF8CF088EF8CF090EF8CF00D
:1019100039EF8CF0D89051365236533654365A0639
:101920005A50D8A496EF8CF098EF8CF08AEF8CF098
:101930005950D8B49EEF8CF0A0EF8CF0A8EF8CF04B
:10194000541E531E521E516C000E5222532254221A
:1019500051C551F552C552F553C553F554C554F50B
:101960001200010E216E9BC522F59CC523F5000EC9
:10197000266E1F0E256E0501BE6BEFEF8CF025065F
:10198000D8A026061C500F0B246E0A0E2460CBEF45
:101990008CF0CDEF8CF0D1EF8CF0300E2426D3EF0D
:1019A0008CF0570E24269F0E2524D96E050E262076
:1019B000DA6E24C5DFF4216A2206D8A023061CC5EE
:1019C0001EF51DC51FF5040E206ED8901F321E3265
:1019D000202EE5EF8CF01EC51CF51FC51DF526BE9B
:1019E000FBEF8CF0265009E1020E255CD8A0FBEF3E
:1019F0008CF0FDEF8CF022EF8DF01C501D10D8A460
:101A000004EF8DF006EF8DF0BFEF8CF02150D8A4DD
:101A10000CEF8DF00EEF8DF0BFEF8CF023BE19EFC1
:101A20008DF0235008E12204D8A019EF8DF01BEFB0
:101A30008DF022EF8DF05FB220EF8DF022EF8DF070
:101A4000BFEF8CF01AC511F51BC512F59F0E2524AA
:101A5000136E050E2620146E22C515F523C516F546
:101A6000A1EC90F01200000E0F14176E000E10146F
:101A7000186E800E1114196E7F0E12141A6E175004
:101A8000181019101A10D8A448EF8DF04AEF8DF0F5
:101A900052EF8DF0000E0F6E000E106E000E116EE4
:101AA000000E126E000E1314176E000E1414186E32
:101AB000800E1514196E7F0E16141A6E175018101A
:101AC00019101A10D8A467EF8DF069EF8DF071EF3F
:101AD0008DF0000E136E000E146E000E156E000ECB
:101AE000166E12AE76EF8DF078EF8DF081EF8DF0FF
:101AF0000F6C101ED8B0102A111ED8B0112A800EFB
:101B0000125616AE86EF8DF088EF8DF091EF8DF0C6
:101B1000136C141ED8B0142A151ED8B0152A800EC6
:101B20001656000E0F1A000E101A000E111A800E13
:101B3000121A000E131A000E141A000E151A800E37
:101B4000161A13500F5C1450105815501158165097
:101B50001258D8B0AEEF8DF0B0EF8DF0B3EF8DF03E
:101B6000D890B4EF8DF0D8801200000E096E000EF0
:101B7000086E01C5D9F402C5DAF4DEC4F6F4DDC49A
:101B8000F7F4000EF86E0800F5502A0AD8A4CBEF3F
:101B90008DF0CDEF8DF000EF8EF001C5D9F402C5C8
:101BA000DAF4DE2A000EDD2203C5D9F404C5DAF426
:101BB000DFC405F5020EDE26DFC406F5000EDD22C9
:101BC00005C5D9F406C5DAF4DEC408F5DDC409F5A7
:101BD00016EF8EF00A0E0802F3C405F5F4C406F5FC
:101BE0000902F350062607500524086E000E062051
:101BF000096E01C5D9F402C5DAF4DE2A000EDD2231
:101C000001C5D9F402C5DAF4DEC4F6F4DDC4F7F494
:101C1000000EF86E0800F550D00F076E090E07642D
:101C200014EF8EF016EF8EF0EAEF8DF008C501F597
:101C300009C502F5120003500410D8B422EF8EF04B
:101C400024EF8EF02DEF8EF003500410D8A42BEF6C
:101C50008EF02DEF8EF032EF8EF00150B8EC95F053
:101C60007FEF8EF020EE09F00350D9260450DA22DF
:101C7000DE50DE10D8B43FEF8EF041EF8EF05CEF17
:101C80008EF020EE09F00350D9260450DA2210EE2F
:101C900002F00350E1260450E222DE50E65CE650FA
:101CA000800A096EDE50800A0958D8B05AEF8EF0CB
:101CB0005CEF8EF07FEF8EF020EE02F00350D9261D
:101CC0000450DA22DEC405F5DDC406F503C5D9F4F7
:101CD00004C5DAF4DEC407F5DDC408F505500724B1
:101CE000D96E06500820DA6E01C5DFF420EE02F04E
:101CF0000350D9260450DA22DE2A000EDD2212001B
:101D0000016E000184BF87EF8EF089EF8EF0E4EF63
:101D10008EF00150050D8F0EF324F66EFE0EF420AA
:101D2000F76EF86A000EF8220800F5C484F001503E
:101D3000050D010EF326000EF4228F0EF324F66E2D
:101D4000FE0EF420F76EF86A000EF8220800F5C4C3
:101D500085F00150050D020EF326000EF4228F0EC1
:101D6000F324F66EFE0EF420F76EF86A000EF822E9
:101D70000800F550FC0B866F0150050D030EF3268D
:101D8000000EF4228F0EF324F66EFE0EF420F76E92
:101D9000F86A000EF8220800F5C489F00150050D1C
:101DA000040EF326000EF4228F0EF324F66EFE0EC0
:101DB000F420F76EF86A000EF8220800F5C48CF0E3
:101DC000C792848FE4EF8EF01200BF0E026E050EF4
:101DD000036E93EC94F0BF0E0E6E050E0F6E730E35
:101DE000106E080E116E7DEC91F0BF0E0B6E050E9D
:101DF0000C6EEE0E0D6EFF0E0E6EF0EC90F00BC53D
:101E0000E3F50CC5E4F50501E351E411D8B40BEF9B
:101E10008FF00DEF8FF015EF8FF0000E026E010EB8
:101E2000016E4EEC94F00DEF8FF0BF0E0B6E050EB1
:101E30000C6E000E0D6EBBEC91F0BF0E0B6E050E1E
:101E40000C6E640E0D6E7DEC94F0BF0E5C6E050E94
:101E50005D6EFEEC87F037EF8FF0BF0E076E050E5C
:101E6000086EDB0E096E050E0A6EEBEC93F0BF0EEA
:101E70000E6E050E0F6ED2EC94F00009D8A443EF5D
:101E80008FF045EF8FF02DEF8FF01200066A04BE41
:101E90004EEF8FF04CEF8FF054EF8FF0036C041E79
:101EA000D8B0042A010E066E02BE5BEF8FF059EF28
:101EB0008FF061EF8FF0016C021ED8B0022A010E84
:101EC000061A000E086E000E076E03500410D8B4F8
:101ED0006CEF8FF06EEF8FF096EF8FF0010E056EC6
:101EE00076EF8FF0D89003360436052A04AE7BEFE8
:101EF0008FF07DEF8FF072EF8FF0D89007360836B5
:101F00000350015C04500258D8A089EF8FF08BEF8A
:101F10008FF090EF8FF00350015E0450025A07805B
:101F2000D89004320332052E7DEF8FF00650D8B4DE
:101F30009CEF8FF09EEF8FF0A2EF8FF0076C081EE2
:101F4000D8B0082A07C501F508C502F51200066ACF
:101F500002BEAFEF8FF0ADEF8FF0B5EF8FF0016CF9
:101F6000021ED8B0022A010E066E04BEBCEF8FF02E
:101F7000BAEF8FF0C0EF8FF0036C041ED8B0042AC4
:101F800003500410D8B4C7EF8FF0C9EF8FF0EDEF16
:101F90008FF0010E056ED1EF8FF0D8900336043626
:101FA000052A04AED6EF8FF0D8EF8FF0CDEF8FF08B
:101FB0000350015C04500258D8A0E1EF8FF0E3EF2A
:101FC0008FF0E7EF8FF00350015E0450025AD89073
:101FD00004320332052ED8EF8FF00650D8B4F3EF59
:101FE0008FF0F5EF8FF0F9EF8FF0016C021ED8B093
:101FF000022A01C501F502C502F51200BE6ABF6AD8
:10200000C06AC16AC26AC36A0401026B0A6B126BBE
:102010001A6B226B2A6BC668C7688F0EC86EF70EE4
:10202000C96E0F0ECA6EFE0ECB6E0069F90E086FF8
:102030008F0E106FF70E186F070E206F2869016B57
:10204000096B116B196B216B296B03690B691369A0
:102050001B69070E236F2B6904690C6914691C69DD
:102060000F0E246F2C690201896B886B876B866B5E
:102070000A0E6B6F320E176F180E296F090E6A6FFA
:10208000310E0A6F0401056B066B076B0D6B0E6B4F
:102090000F6B156B166B176B256B266B276B12007E
:1020A000F40E3E6EFF0E3F6E50C540F551C541F532
:1020B000BFEC94F091EF90F0550E076E050E086E90
:1020C000050E096E525036EC94F0522AFA0E3E6E0E
:1020D000FF0E3F6EBFEC94F0000E5B6E000E5A6E6A
:1020E000D40E3E6EFF0E3F6E550E5A24D96E050E6D
:1020F0005B20DA6EDF50546E5450406E416ABFEC84
:1021000094F05A4A5B2A5BBE8FEF90F05B5009E176
:10211000050E5A5CD8A08FEF90F091EF90F070EF21
:1021200090F053065328D8A498EF90F09AEF90F0CF
:102130005CEF90F0FA0E3E6EFE0E3F6EBFEC94F038
:1021400012005FA0A6EF90F0A8EF90F0B2EF90F031
:1021500013C50AF514C50BF511C50CF512C50DF51F
:1021600026EC93F016BEB9EF90F0B7EF90F0BDEF0C
:1021700090F0000E166E000E156E000E196E000E19
:10218000186ECFEF90F0000E026E200E016E11C59A
:1021900003F512C504F51BEC8EF0184A192A1550E8
:1021A000185C1950800A176E1650800A1758D8A06C
:1021B000DCEF90F0DEEF90F0C3EF90F05FB0E3EF74
:1021C00090F0E5EF90F0EFEF90F013C50AF514C52D
:1021D0000BF511C50CF512C50DF526EC93F01200A8
:1021E000000E186E000E176E0DC507F50EC508F52A
:1021F000050E096E0B0ED2EC93F0120E076E050E53
:10220000086E050E096E0B0E36EC94F0000E1A6E79
:10221000000E196E120E1924D96E050E1A20DA6EF0
:1022200019500D24106E1A500E20116E10C5F6F4C0
:1022300011C5F7F4000EF86EDE500900F518D8B499
:1022400024EF91F026EF91F028EF91F017681868CD
:10225000194A1A2A1ABE36EF91F01A5009E1050EF2
:10226000195CD8A036EF91F038EF91F00AEF91F0B9
:1022700017C50BF518C50CF512004F6EB70E3E6E64
:10228000FE0E3F6E4FC540F5416A4FBC4AEF91F0DC
:102290004DEF91F0010E4EEF91F0000E426E436A49
:1022A0004FBA55EF91F058EF91F0010E59EF91F0C0
:1022B000000E446E456A4FB860EF91F063EF91F005
:1022C000010E64EF91F0000E466E476A4FC54EF561
:1022D000D8904E32070E4E164E50486E496A4FB097
:1022E00074EF91F077EF91F0010E78EF91F0000E1E
:1022F0004A6E4B6ABFEC94F0120020EE01F00E50D3
:10230000D9260F50DA2210C5DFF420EE02F00E506D
:10231000D9260F50DA2211C5DFF40EC50BF50FC513
:102320000CF548EC95F010C503F5050E30EC95F072
:1023300020EE02F00E50D9260F50DA22DF50036E45
:10234000110E30EC95F020EE02F00E50D9260F5011
:10235000DA22DF50036E120E30EC95F00EC505F553
:102360000FC506F5E5EC94F00EC503F50FC504F5B1
:10237000ABEC95F01200020E0D64C1EF91F0C3EFCB
:1023800091F0C5EF91F0F1EF91F00E0E076E050E92
:10239000086E010E096E060E36EC94F0020E0D1852
:1023A000D8A4D5EF91F0D7EF91F0E4EF91F00E5073
:1023B00020090E6E0E50F70B0E6E0EC503F5060EBD
:1023C00030EC95F0F1EF91F00E50D70B0E6E0D380A
:1023D000E842F80B0E100E6E0EC503F5060E30EC3B
:1023E00095F012000D6A0F0E076E050E086E010EB5
:1023F000096E000E36EC94F00F500C0B0F6E0E0EA3
:10240000076E050E086E010E096E010E36EC94F093
:102410000FB60DEF92F00FEF92F017EF92F00E5013
:10242000D8B415EF92F017EF92F024EF92F00FA4CA
:102430001CEF92F01EEF92F022EF92F0020E0D6E62
:1024400024EF92F0010E0D6E0D501200606A020E24
:10245000616E626A6368F90E646E130E656E666A79
:10246000676A686A6A6A6B6A7D0E6C6E6D6A7D0E59
:102470006E6EB29CB29E67906792A29EA29C000E66
:10248000016E000E026E000E036E88EC95F0000ED9
:10249000016E000E026E000E036E81EC95F0000ED0
:1024A000016E000E026E000E036E8FEC95F0800E32
:1024B000696E1200F40E3E6EFF0E3F6E50C540F581
:1024C00051C541F5BFEC94F079EF92F0540E076ED0
:1024D000050E086E010E096E525036EC94F0522A29
:1024E000D10E3E6EFF0E3F6E54C540F5416ABFEC03
:1024F00094F053065328D8A480EF92F082EF92F024
:1025000066EF92F0FA0E3E6EFE0E3F6EBFEC94F058
:10251000120093EF92F0AA0EE82EFED700D0200E04
:10252000015E000E025A025007E1200E015CD8B095
:102530009CEF92F09EEF92F08BEF92F0A4EF92F06E
:10254000050EE82EFED700000106D8A002060128DD
:1025500006E10228D8A4AFEF92F0B1EF92F0A0EF1D
:1025600092F0120038C53CF539C53DF5C6EF92F042
:1025700036C527F537C528F53C0E296E050E2A6E9F
:102580003AC52BF53BC52CF56EEC84F03CC5F6F452
:102590003DC5F7F4000EF86E0800F5500009D8A408
:1025A000D4EF92F0D6EF92F0B8EF92F0000E376EC3
:1025B000000E366E12000E0E076E050E086E010E2E
:1025C000096E060E36EC94F00E50280B0E6E200E9F
:1025D0000E18D8A4EEEF92F0F0EF92F0F4EF92F034
:1025E000020E0D6E02EF93F0080E0E18D8A4FBEF4A
:1025F00092F0FDEF92F001EF93F0010E0D6E02EFFD
:1026000093F00D6A0D501200C09A066A1BEF93F00A
:1026100003C5F6F404C5F7F4000EF86E0800F55093
:10262000A9EC94F0034A042A000E026E0A0E016E11
:1026300089EC92F0062A0550065CD8A022EF93F0B0
:1026400024EF93F008EF93F0C08A1200000E106E92
:10265000000E0F6E37EF93F00EC501F5026A0CC540
:1026600003F50DC504F51BEC8EF00F4A102A0F5030
:102670000A24D96E10500B20DA6EDF500E6E0E5009
:10268000D8A445EF93F047EF93F02CEF93F01200AE
:10269000D69AAF90D680000E016E000E026E000E2C
:1026A000036EA4EC95F0B490D682000E016E000E7D
:1026B000026E000E036E9DEC95F0B890D684000E6D
:1026C000016E000E026E000E036E96EC95F0120085
:1026D00050415F4D494E000050415F4C4F57000044
:1026E00050415F484947480050415F4D4158000004
:1026F000314D627073000000324D62707300000053
:102700003235304B62707300D00EF66E260EF76EC7
:10271000010EF86E01EE60F110EE38F00900F5C41C
:10272000EEF4E550E150FAE101EE98F12A0EEE6A7E
:10273000E806FDE15F6A000172EF95F008BEA3EFC5
:1027400093F0A5EF93F0ABEF93F007C507F508C53D
:1027500008F5B7EF93F007C509F508C50AF5091E96
:102760000A1E094A0A2A09C507F50AC508F5120012
:10277000C09A066AC7EF93F0FF0EA9EC94F003C568
:10278000D9F404C5DAF4DF6E034A042A062A055098
:10279000065CD8A0CEEF93F0D0EF93F0BCEF93F0AF
:1027A000C08A12000A6E0950D8B4D9EF93F0DBEF5B
:1027B00093F0EAEF93F0C09A0A501F0B2009A9EC9E
:1027C00094F007C503F508C504F509C505F504EC43
:1027D00093F0C08A1200C09A610EA9EC94F009C56A
:1027E00003F50AC504F520EE02F00750D92608507B
:1027F000DA22DF50056EB8EC93F0C08A400E036E0B
:10280000070E30EC95F01200000E0501DC6F000E93
:10281000DD6F340EDE6F430EDF6FDCC5E0F5DDC526
:10282000E1F5DEC5E2F5DFC5E3F5E46BE00EDA6F56
:10283000050EDB6F1DEC94F01200DAC5D9F4DBC590
:10284000DAF4DEC4D4F5DEC4D5F5DEC4D6F5DEC4D4
:10285000D7F566EC94F0050120EE04F0DA51D926A4
:10286000DB51DA22DF5016EC95F012000A6E0950A7
:10287000D8B43DEF94F03FEF94F04DEF94F0C09A50
:102880000A501F0BA9EC94F007C503F508C504F521
:1028900009C505F5B8EC93F0C08A120058EF94F022
:1028A000150E036EC60EE82EFED7032EFCD700D001
:1028B0000106D8A00206012806E10228D8A463EF89
:1028C00094F065EF94F050EF94F01200D4C55BF5EE
:1028D000D5C55CF5D6C55DF5D7C55EF501EC89F0CB
:1028E0005BC5D8F55CC5D9F5D8C501F5D9C502F5E4
:1028F000B1EC95F0B6EC95F012000E0E076E050ED9
:10290000086E010E096E040E36EC94F00E500F0B9B
:102910000E6E0D38F00B0E100E6E0EC503F5040E84
:1029200030EC95F01200000E80EC8EF020EE01F0FD
:102930000250D9260350DA22730EDF6E20EE02F029
:102940000250D9260350DA22200EDF6EC89AC898AA
:102950001200016E0001878586510309866F836B23
:10296000010E826F01C581F0B1A0B9EF94F0BBEF09
:1029700094F0B4EF94F080C002F502501200400EC3
:102980004C6E050E4D6E000E366E000E376E3EC557
:1029900038F53FC539F54C0E3A6E050E3B6EB2EC7C
:1029A00092F012000EC50BF50FC50CF548EC95F032
:1029B000106E10ACDEEF94F0E0EF94F0E3EF94F0E3
:1029C000010EE4EF94F0000E120005C5D9F406C51F
:1029D000DAF4DF6AC0982B0E036E000E30EC95F02F
:1029E000C088300E036E070E30EC95F0120053ECE9
:1029F00095F0D68EE5EC8EF03A0E016E280E026E42
:102A0000010E036E7AEC95F05EEC95F012000D0E5F
:102A1000076E050E086E010E096E060E36EC94F078
:102A2000D8900D30030B0D6E0D501200016E015049
:102A3000D8B41DEF95F01FEF95F022EF95F0C18609
:102A400023EF95F0C19612000D0E076E050E086E6D
:102A5000010E096E040E36EC94F00D380F0B1200C7
:102A6000046EC09A04501F0B2009A9EC94F0035087
:102A7000A9EC94F0C08A1200A194A192A190000147
:102A8000846B040E856F866B896B8C6B8785120057
:102A90000D0E076E050E086E010E096E070E36EC60
:102AA00094F00D50120068EC95F0FEEC8FF026ECDF
:102AB00092F03CEC95F048EC93F01200120E026E8E
:102AC000C00E016EB1EC95F0B6EC95F0C196120017
:102AD000600E0001AD6FAF6BB36B080EB16FB06BE2
:102AE000AC6B1200F7EC94F004EC94F074EF95F0FA
:102AF000FEEFFFF001C598F502C599F503C59AF5FB
:102B0000120001C5CEF502C5CFF503C5D0F5120000
:102B100001C5D1F502C5D2F503C5D3F5120001C533
:102B2000CBF502C5CCF503C5CDF5120001C5C2F544
:102B300002C5C3F503C5C4F5120001C5C5F502C53C
:102B4000C6F503C5C7F5120001C5C8F502C5C9F52C
:102B500003C5CAF51200C09AE20EA9EC94F0C08A2F
:102B6000120001C56BF402506C6E120069841200F1
:022B7000120051
:04FFFC0084EF93F00B
:020000040020DA
:10000000FFFFFFFFFFFFFFFFFFFFFFFFFFFFFFFF00
:10001000FFFFFFFFFFFFFFFFFFFFFFFFFFFFFFFFF0
:10002000FFFFFFFFFFFFFFFFFFFFFFFFFFFFFFFFE0
:10003000FFFFFFFFFFFFFFFFFFFFFFFFFFFFFFFFD0
:020000040030CA
:080000008FFFF7FF9FFFFFFFD8
:01000900FFF7
:00000001FF
