:04000000FEEFFFF020
:10FE640000E429010000006E1C01000000000000F5
:10FE7400000000000000BE28010000000000000097
:10FE8400000000000000000000000002C000FF00AD
:10FE940002C000FF0044697361626C65640000384D
:10FEA4002062697473000000003136206269747343
:10FEB4000000005354415455530909203D20307823
:10FEC400253032782052585F44523D2578205458CA
:10FED4005F44533D2578204D41585F52543D257869
:10FEE4002052585F505F4E4F3D25782054585F464E
:10FEF400554C4C3D25780D0A003D3D3D3D3D3D3D75
:10FF04003D3D3D3D3D3D3D3D3D204E524620436FF0
:10FF14006E66696775726174696F6E203D3D3D3D23
:10FF24003D3D3D3D3D3D3D3D3D3D3D3D0A00526530
:10FF34007472616E736D697409203D2025642075A7
:10FF4400730A00435243204C656E67746809203D70
:10FF54002025730A0044617461205261746509208C
:10FF64003D2025730A00504120506F7765720920A7
:10FF74003D2025730A0044594E50442F46454154B0
:10FF84005552450052585F414444525F50302D3120
:10FF94000052585F414444525F50322D350052584C
:10FFA4005F50575F50302D3600454E5F52584144E4
:10FFB40044520054585F41444452090052465F532E
:10FFC4004554555000434F4E464947090020307868
:10FFD4002530327800286E756C6C2900454E5F41DF
:10FFE40041090052465F43480900464748494A00D0
:0BFFF400257309203D0020307800003C
:020000040001F9
:100000003650800B3F6E36503624416E35AE0BEFC6
:1000100080F00DEF80F00EEF80F041804150D8B4B9
:1000200014EF80F016EF80F02AEF80F04128D8A47A
:100030001CEF80F01EEF80F026EF80F0000E336E94
:10004000000E346E000E356E000E366E358E366A3A
:1000500032EF80F0000E336E000E346E000E356EFF
:10006000000E366E3A50800B406E3F504018D8B4A8
:100070003CEF80F03EEF80F03FEF80F03F8C3A5055
:100080003A24406E39AE47EF80F049EF80F04AEFF6
:1000900080F040804050D8B450EF80F052EF80F0B4
:1000A00066EF80F04028D8A458EF80F05AEF80F037
:1000B00062EF80F0000E376E000E386E000E396E63
:1000C000000E3A6E398E3A6A6EEF80F0000E376E8F
:1000D000000E386E000E396E000E3A6E4150405CD4
:1000E000D8B075EF80F077EF80F09EEF80F03FACF6
:1000F0007CEF80F07EEF80F080EF80F0800E3F1A82
:1001000041C542F540C541F542C540F533C542F50C
:1001100037C533F542C537F534C542F538C534F532
:1001200042C538F535C542F539C535F542C539F50D
:1001300036C542F53AC536F542C53AF5426A4150F0
:1001400040C53BF53C6A3B5E000E3C5A3CBEB2EFFC
:1001500080F03C5009E11A0E3B5CD8A0B2EF80F071
:10016000B4EF80F0EBEF80F03350341035103610E0
:10017000D8A4BDEF80F0C0EF80F0010EC1EF80F099
:10018000000E426E000E336E000E346E000E356EA1
:10019000000E366E40C541F5F4EF80F042A0D3EF7B
:1001A00080F0D5EF80F0DBEF80F0D890423001098D
:1001B000426EDDEF80F0D890423233A0E2EF80F063
:1001C000E4EF80F0E5EF80F0428E3634363235329F
:1001D00034323332412A4050415CD8A0F2EF80F0F3
:1001E000F4EF80F0CEEF80F03FBCF9EF80F0FBEF52
:1001F00080F03BEF81F04150D8A401EF81F003EF94
:1002000081F00DEF81F0000E336E000E346E000EA3
:10021000356E000E366E5AEF82F037503326385066
:100220003422395035223A50362236A01AEF81F066
:100230001CEF81F0C8EF81F042A021EF81F023EFA5
:1002400081F029EF81F0D89042300109426E2BEF06
:1002500081F0D890423233A030EF81F032EF81F05C
:1002600033EF81F0428E3634363235323432333227
:10027000412AC8EF81F03750335C38503458395038
:1002800035583650800A3B6E3A50800A3B58D8B0F9
:100290004CEF81F04EEF81F079EF81F03350375C15
:1002A0003B6E345038583C6E355039583D6E3650A0
:1002B0003A583E6EFF0E3B24336EFF0E3C20346EE8
:1002C000FF0E3D20356EFF0E3E20366E800E3F1A2B
:1002D000426C4250D8A46FEF81F071EF81F081EF52
:1002E00081F0010E3326000E34223522362281EFB2
:1002F00081F03750335E3850345A3950355A3A50BD
:10030000365A3350341035103610D8A48AEF81F0A5
:100310008CEF81F0C1EF81F04250D8A492EF81F0D0
:1003200094EF81F0C1EF81F0000E336E000E346E59
:10033000000E356E000E366E5AEF82F0D8903336CE
:1003400034363536363642AEA8EF81F0AAEF81F06A
:10035000ABEF81F0338042A0B0EF81F0B2EF81F0DB
:10036000B6EF81F0D8804236B8EF81F0D8904236AF
:100370004150D8B4BEEF81F0C0EF81F0C1EF81F001
:10038000410635AEC6EF81F0C8EF81F09EEF81F0F7
:10039000406A42AECEEF81F0D0EF81F0E8EF81F01D
:1003A00042C53BF57F0E3B16D8B4D9EF81F0DBEFA9
:1003B00081F0DFEF81F0010E406EE8EF81F033A0B5
:1003C000E4EF81F0E6EF81F0E8EF81F0DBEF81F020
:1003D0004050D8B4EEEF81F0F0EF81F01BEF82F0E7
:1003E000010E3326000E34223522362236A0FBEFD2
:1003F00081F0FDEF81F01BEF82F033C53BF534C592
:100400003CF535C53DF536C53EF53E343E323D3210
:100410003C323B323BC533F53CC534F53DC535F583
:100420003EC536F54128D8B418EF82F01AEF82F0B5
:100430001BEF82F0412A4128D8B421EF82F023EF4C
:1004400082F02BEF82F04150D8A429EF82F02BEFFD
:1004500082F03CEF82F0000E336E000E346E000E20
:10046000356E000E366E4150D8A439EF82F03BEF66
:1004700082F03CEF82F03F6A41A041EF82F043EF0F
:1004800082F046EF82F0358E47EF82F0359ED890AD
:100490004130366E3FAE4FEF82F051EF82F052EFB7
:1004A00082F0368E33C533F534C534F535C535F5B0
:1004B00036C536F512001D50800B266E1D501D24CA
:1004C0002C6E1CAE66EF82F068EF82F069EF82F06E
:1004D0002C802C50D8B46FEF82F071EF82F084EF53
:1004E00082F02C28D8A477EF82F079EF82F081EFA8
:1004F00082F0000E1A6E000E1B6E000E1C6E000EB7
:100500001D6E1C8E8CEF82F0000E1A6E000E1B6E9C
:10051000000E1C6E000E1D6E2150800B261A2150FD
:1005200021242B6E20AE97EF82F099EF82F09AEFA4
:1005300082F02B802B50D8B4A0EF82F0A2EF82F093
:10054000B5EF82F02B28D8A4A8EF82F0AAEF82F0B2
:10055000B2EF82F0000E1E6E000E1F6E000E206EB7
:10056000000E216E208EBDEF82F0000E1E6E000E7A
:100570001F6E000E206E000E216E2B50D8B4C3EFFC
:1005800082F0C5EF82F0CDEF82F02C50D8A4CBEFF3
:1005900082F0CDEF82F0D7EF82F0000E1A6E000EDF
:1005A0001B6E000E1C6E000E1D6E6DEF84F0205051
:1005B0001A02F3C431F5F4C432F53150276E286ABB
:1005C000296A2A6A32502D6E2E6A2F6A306A1F50AD
:1005D0001B02F3C431F5F4C432F531502726000E66
:1005E000282229222A2232502D26000E2E222F22A6
:1005F00030221E501C02F3C431F5F4C432F53150E0
:100600002726000E282229222A2232502D26000ECB
:100610002E222F22302229C52AF528C529F527C5E3
:1006200028F5276A1E501B02F3C431F5F4C432F5D5
:100630003150272632502822000E2922000E2A226D
:100640001F501A02F3C431F5F4C432F53150272695
:1006500032502822000E2922000E2A2229C52AF50E
:1006600028C529F527C528F5276A1E501A02F3C4A4
:1006700031F5F4C432F53150272632502822000ECD
:100680002922000E2A2220501B02F3C431F5F4C4A3
:1006900032F531502D2632502E22000E2F22000E20
:1006A00030221F501C02F3C431F5F4C432F531502E
:1006B0002D2632502E22000E2F22000E30222050E6
:1006C0001C02F3C431F5F4C432F53150226E3250BD
:1006D000236E246A256A24C525F523C524F522C581
:1006E00023F5226A22502D2623502E2224502F2219
:1006F0002550302227C522F528C523F529C524F524
:100700002AC525F5190E8AEF83F0D89025322432B8
:1007100023322232E82E85EF83F022502D262350FB
:100720002E2224502F222550302229C52AF528C5F3
:1007300029F527C528F5276A2B502CC522F5236AF1
:100740002226000E2322820E2224316EFF0E232049
:10075000326EC0EF83F0D8902D362E362F363036DD
:100760002AAEB5EF83F0B7EF83F0B8EF83F02D80BA
:10077000D8902736283629362A363106D8A03206B0
:100780002FAEC5EF83F0C7EF83F0ABEF83F02B6A9A
:100790002AAECDEF83F0CFEF83F0F3EF83F0FF0EBF
:1007A0002714226EFF0E2814236EFF0E2914246EC8
:1007B0007F0E2A14256E2250231024102510D8B441
:1007C000E4EF83F0E6EF83F0EAEF83F0010E2B6EA7
:1007D000F3EF83F02DA0EFEF83F0F1EF83F0F3EF71
:1007E00083F0E6EF83F02B50D8B4F9EF83F0FBEF02
:1007F00083F01FEF84F0010E2D26000E2E222F22F3
:10080000302230A006EF84F008EF84F01FEF84F070
:100810002DC522F52EC523F52FC524F530C525F5A8
:100820002534253224322332223222C52DF523C528
:100830002EF524C52FF525C530F5314A322A32BEB2
:100840002AEF84F0325008E13128D8A02AEF84F052
:100850002CEF84F036EF84F0000E2D6E000E2E6E1D
:10086000800E2F6E7F0E306E63EF84F032BE43EF4A
:1008700084F0325006E13104D8B041EF84F043EF08
:1008800084F04EEF84F0000E2D6E000E2E6E000EE2
:100890002F6E000E306E266A63EF84F031C52CF5A2
:1008A000FF0E2D16FF0E2E167F0E2F16000E301681
:1008B0002CA05DEF84F05FEF84F060EF84F02F8E6A
:1008C000D8902C30306E265030122DC51AF52EC51A
:1008D0001BF52FC51CF530C51DF5120029C5D9F42F
:1008E0002AC5DAF4DEC4F6F4DDC4F7F4000EF86EBF
:1008F0000800F550250AD8A480EF84F082EF84F038
:100900001FEF86F029C5D9F42AC5DAF4DE2A000ED5
:10091000DD22000E05019C6F000E9B6F9BC55EF5EE
:100920009D699E69336AB5EF84F05E8229C5D9F46A
:100930002AC5DAF4DE2A000EDD22B5EF84F0010EBE
:10094000336EB5EF84F029C5D9F42AC5DAF4DEC4D4
:10095000F6F4DDC4F7F4000EF86E0800F550300A26
:10096000D8B495EF84F09FEF84F03350D8B4BBEF48
:1009700084F0BDEF84F0A3EF84F029C501F52AC50A
:1009800002F52BC503F52CC504F56CEC8DF001C503
:100990009BF502C59CF505019CBFD3EF84F0D1EF18
:1009A00084F0D8EF84F05E809B6D9C1FD8B09C2BA8
:1009B00029C5D9F42AC5DAF4DEC434F5DDC435F529
:1009C00034C5F6F435C5F7F4000EF86E0800F5509E
:1009D000640AD8B4EEEF84F0F0EF84F000EF85F015
:1009E00034C5F6F435C5F7F4000EF86E0800F5507E
:1009F000690AD8A4FEEF84F000EF85F02EEF85F0B1
:100A00002BC5D9F42CC5DAF4DFC42DF5020EDE2691
:100A1000DFC42EF5000EDD222DC5D9F42EC5DAF483
:100A2000DEC42FF5DDC430F5010E34242D6E000E2A
:100A300035202E6E29C5D9F42AC5DAF42DC5DEF489
:100A40002EC5DDF427C51AF528C51BF52FC51CF5E5
:100A500030C51DF5DBEC89F035EF86F034C5F6F4D2
:100A600035C5F7F4000EF86E0800F550780AD8A4E2
:100A70003CEF85F03EEF85F07CEF85F02BC5D9F497
:100A80002CC5DAF4DFC42DF5020EDE26DFC42EF508
:100A9000000EDD222DC5D9F42EC5DAF4DEC42FF503
:100AA000DDC430F5010E34242D6E000E35202E6E7F
:100AB00029C5D9F42AC5DAF42DC5DEF42EC5DDF436
:100AC0006EEF85F027C51AF528C51BF52FC51CF557
:100AD00030C51DF568EC8CF035EF86F034C5F6F4C2
:100AE00035C5F7F4000EF86E0800F550780AD8B452
:100AF00062EF85F07CEF85F0336A29C5D9F42AC509
:100B0000DAF4DEC4F6F4DDC4F7F4000EF86E080083
:100B1000F550730AD8A48FEF85F091EF85F09CEF24
:100B200085F029C5D9F42AC5DAF4DE2A000EDD22C3
:100B3000010E336EF2EF85F029C5D9F42AC5DAF437
:100B4000DEC4F6F4DDC4F7F4000EF86E0800F550CC
:100B50006C0AD8A4AEEF85F0B0EF85F0F2EF85F027
:100B600029C5D9F42AC5DAF4DEC42DF5DDC42EF585
:100B7000010E2D26000E2E222DC5F6F42EC5F7F4FB
:100B8000000EF86E0800F5506C0AD8A4CAEF85F084
:100B9000CCEF85F0F2EF85F029C5D9F42AC5DAF457
:100BA000DEC42DF5DDC42EF5020E2D26000E2E22FC
:100BB0002DC5F6F42EC5F7F4000EF86E0800F550BA
:100BC000730AD8A4E6EF85F0E8EF85F0F2EF85F040
:100BD000030E29C5D9F42AC5DAF4DE26000EDD227B
:100BE00098EF85F03350D8B4F8EF85F0FAEF85F040
:100BF00016EF86F027C50AF528C50BF52BC5D9F4E5
:100C00002CC5DAF4DFC42DF5020EDE26DFC42EF586
:100C1000000EDD222DC5D9F42EC5DAF4DEC40CF5A4
:100C2000DDC40DF596EC8AF035EF86F029C5D9F4D0
:100C30002AC5DAF4DE2A000EDD2235EF86F029C55A
:100C4000D9F42AC5DAF4DEC4F6F4DDC4F7F4000EF4
:100C5000F86E0800F550016E026A27C503F528C535
:100C600004F5D2EC8DF016EF86F012000450800BE4
:100C7000116E04500424186E03AE41EF86F043EF6A
:100C800086F044EF86F018801850D8B44AEF86F00A
:100C90004CEF86F060EF86F01828D8A452EF86F06B
:100CA00054EF86F05CEF86F0000E016E000E026ECF
:100CB000000E036E000E046E038E046A68EF86F069
:100CC000000E016E000E026E000E036E000E046E2A
:100CD0000850800B111A08500824196E07AE73EFE4
:100CE00086F075EF86F076EF86F019801950D8B44B
:100CF0007CEF86F07EEF86F092EF86F01928D8A47C
:100D000084EF86F086EF86F08EEF86F0000E056E9B
:100D1000000E066E000E076E000E086E078E086A43
:100D20009AEF86F0000E056E000E066E000E076E3E
:100D3000000E086E0550061007100810D8A4A3EF87
:100D400086F0A5EF86F0BDEF86F0000E016E000E76
:100D5000026E000E036E000E046E800E03127F0EF4
:100D600004121150041201C501F502C502F503C5B4
:100D700003F504C504F5FDEF87F01850D8A4C3EFC0
:100D800086F0C5EF86F0CFEF86F0000E016E000E04
:100D9000026E000E036E000E046EFDEF87F0195018
:100DA00018C509F50A6A095E000E0A5A7F0E092461
:100DB000126E000E0A20136E01C50DF502C50EF568
:100DC00003C50FF504C510F5000E016E000E026E8E
:100DD000000E036E000E046E000E146E000E156EF3
:100DE000000E166E000E176E196A2FEF87F019505D
:100DF000D8B4FDEF86F0FFEF86F016EF87F0D890BD
:100E00000D360E360F361036D890013602360336C0
:100E1000043617AE0EEF87F010EF87F011EF87F072
:100E20000180D890143615361636173605500D5CED
:100E300006500E5807500F5808501058D8A023EFEE
:100E400087F025EF87F02EEF87F0178C05500D5EA9
:100E500006500E5A07500F5A0850105A192A190EE8
:100E6000196435EF87F037EF87F0F7EF86F00D5014
:100E70000E100F101010D8B440EF87F042EF87F03B
:100E80005AEF87F014805AEF87F0D8900136023677
:100E90000336043617AE4FEF87F051EF87F052EF6D
:100EA00087F00180D890143615361636173612069C
:100EB000D8A0130603AE5FEF87F061EF87F045EF30
:100EC00087F0196A17AE67EF87F069EF87F08DEF4B
:100ED00087F0FF0E1414096EFF0E15140A6EFF0E34
:100EE00016140B6E7F0E17140C6E09500A100B109F
:100EF0000C10D8B47EEF87F080EF87F084EF87F096
:100F0000010E196E8DEF87F001A089EF87F08BEF4E
:100F100087F08DEF87F080EF87F01950D8B493EF0A
:100F200087F095EF87F0B9EF87F0010E0126000EEC
:100F300002220322042204A0A0EF87F0A2EF87F090
:100F4000B9EF87F001C509F502C50AF503C50BF530
:100F500004C50CF50C340C320B320A32093209C5C7
:100F600001F50AC502F50BC503F50CC504F5124AD7
:100F7000132A13BEC4EF87F0135008E11228D8A03B
:100F8000C4EF87F0C6EF87F0D1EF87F0000E136E45
:100F90001268000E016E000E026E000E036E000E4F
:100FA000046E13BEDEEF87F0135006E11204D8B0D2
:100FB000DCEF87F0DEEF87F0EBEF87F0000E136ECB
:100FC000000E126E000E016E000E026E000E036E19
:100FD000000E046E116A12C518F518A0F2EF87F022
:100FE000F4EF87F0F7EF87F0038EF8EF87F0039EBA
:100FF000D8901830046EB1EF86F01200FD0E3E6EF0
:10100000FE0E3F6E75EC94F05CC50BF55DC50CF5FE
:10101000FEEC94F0F4EC90F05CC54EF55DC54FF538
:10102000880E506EFF0E516E0A0E526E020E536EF7
:1010300007EC90F05CC54EF55DC54FF5950E506E12
:10104000FF0E516E0C0E526E040E536E11EC92F0A8
:101050005CC54EF55DC54FF5B70E506EFF0E516E77
:10106000100E526E010E536E07EC90F05CC54EF5FB
:101070005DC54FF5A20E506EFF0E516E110E526EF1
:10108000060E536E11EC92F05CC54EF55DC54FF542
:10109000E00E506EFF0E516E010E526E010E536E39
:1010A00011EC92F05CC54EF55DC54FF5AD0E506E7E
:1010B000FF0E516E020E526E010E536E11EC92F045
:1010C0005CC54EF55DC54FF5E70E506EFF0E516ED7
:1010D000050E526E010E536E11EC92F05CC54EF58A
:1010E0005DC54FF5C00E506EFF0E516E060E526E6E
:1010F000010E536E11EC92F05CC54EF55DC54FF5D7
:10110000C90E506EFF0E516E000E526E010E536EE0
:1011100011EC92F05CC54EF55DC54FF57A0E506E40
:10112000FF0E516E1C0E526E020E536E11EC92F0B9
:10113000590E3E6EFF0E3F6E5CC50BF55DC50CF59E
:1011400092EC92F00501D46FD451080D800EF32477
:10115000406E050EF420416E75EC94F0470E3E6E25
:10116000FF0E3F6E5CC50BF55DC50CF5A9EC91F06B
:101170000501D46FD4510A0D990EF324406EFE0E72
:10118000F420416E75EC94F06A0E3E6EFF0E3F6ED9
:101190005CC50BF55DC50CF5BDEC94F00501D46F95
:1011A000D451080D600EF324406E050EF420416EFC
:1011B00075EC94F05CC50BF55DC50CF5DAEC94F0BC
:1011C0000501DA6FDA51D46FD56B010ED427000E0A
:1011D000D523FA0ED403F3C4D6F5F4C4D7F5D5035A
:1011E000F350D727D6C5D8F5D7C5D9F5320E3E6E00
:1011F000FF0E3F6ED8C540F5D9C541F575EC94F0AA
:101200001200096E0950D8B408EF89F00AEF89F08E
:101210002CEF89F004BE11EF89F00FEF89F02CEF6D
:1012200089F001C505F502C506F503C507F504C536
:1012300008F5051E061E071E081E052A000E0622BA
:101240000722082205C50BF506C50CF507C50DF5E7
:1012500008C50EF534EF89F001C50BF502C50CF594
:1012600003C50DF504C50EF501500210031004105E
:10127000D8A43DEF89F03FEF89F049EF89F0000EE7
:10128000016E000E026E000E036E000E046EDAEFA9
:1012900089F0960E0A6E53EF89F00A2AD8900E3222
:1012A0000D320C320B32000E0B14056E000E0C14B6
:1012B000066E000E0D14076EFE0E0E14086E05501D
:1012C000061007100810D8A468EF89F06AEF89F0BB
:1012D0004DEF89F078EF89F00A2A010E0B26000EF7
:1012E0000C220D220E22D8900E320D320C320B320F
:1012F000000E0B14056E000E0C14066E000E0D147D
:10130000076EFF0E0E14086E055006100710081029
:10131000D8A48DEF89F08FEF89F06CEF89F097EF0B
:1013200089F00A06D8900B360C360D360E360DBEF7
:101330009CEF89F09EEF89F0A6EF89F0020E0A601B
:10134000A4EF89F0A6EF89F091EF89F00AB0ABEF36
:1013500089F0ADEF89F0AEEF89F00D9ED8900A329A
:101360000AC505F5066A076A086A05C508F5076A29
:10137000066A056A05500B1206500C1207500D1232
:1013800008500E120950D8B4C8EF89F0CAEF89F09E
:10139000D2EF89F004BED1EF89F0CFEF89F0D2EF20
:1013A00089F00E8E0BC501F50CC502F50DC503F5D0
:1013B0000EC504F51200010E206E1DBEE2EF89F08D
:1013C000E5EF89F0010EE6EF89F0000E236E9BC574
:1013D00021F59CC522F52350D8B4F1EF89F0F3EF45
:1013E00089F00AEF8AF02106D8A022062350D8A45B
:1013F000FCEF89F0FEEF89F004EF8AF0000E1F6E1B
:101400002B0E1E6E08EF8AF0000E1F6E2D0E1E6E44
:101410001EC523F5000E256E1F0E246E0501BE6B42
:1014200040EF8AF02406D8A025069F0E2424D96E0A
:10143000050E2520DA6E1CC501F51DC502F5000E4E
:10144000046E0A0E036E5EEC8FF001C507F502C54F
:1014500008F555EC93F00750300FDF6E206A210637
:10146000D8A022061CC501F51DC502F5000E046EAC
:101470000A0E036EFDEC8EF001C51CF502C51DF5CC
:1014800025BE4BEF8AF0255008E12404D8A04BEF8D
:101490008AF04DEF8AF072EF8AF01C501D10D8A42C
:1014A00054EF8AF056EF8AF012EF8AF02050D8A459
:1014B0005CEF8AF05EEF8AF012EF8AF022BE69EFED
:1014C0008AF0225008E12104D8A069EF8AF06BEF7E
:1014D0008AF072EF8AF05EB270EF8AF072EF8AF0F3
:1014E00012EF8AF02350D8B478EF8AF07AEF8AF0BE
:1014F00085EF8AF02406D8A025069F0E2424D96EF5
:10150000050E2520DA6E23C5DFF41AC511F51BC5BB
:1015100012F59F0E2424136E050E2520146E21C58E
:1015200015F522C516F558EC90F012000CC514F50F
:101530000DC515F514501510D8A4A1EF8AF0A3EF2E
:101540008AF0A7EF8AF0D90E146EFF0E156E000E0A
:10155000176E000E166EAFEF8AF0164A172A165055
:1015600014240E6E175015200F6E0EC5F6F40FC51D
:10157000F7F4000EF86E250EF76403D00800F5505E
:1015800005D0F6C4E9F4F7C4EAF4EF500009D8A492
:10159000CCEF8AF0CEEF8AF0ADEF8AF016C510F5E9
:1015A00017C511F59BC512F59CC513F55EB0DBEFB1
:1015B0008AF0DDEF8AF019EF8BF0EBEF8AF0000E86
:1015C000026E200E016E0AC503F50BC504F5D2ECC0
:1015D0008DF0164A172A1250165C1750800A0E6EAC
:1015E0001350800A0E58D8A0F8EF8AF0FAEF8AF06C
:1015F000DFEF8AF019EF8BF014C5F6F415C5F7F498
:10160000000EF86E250EF76403D00800F55005D0E3
:10161000F6C4E9F4F7C4EAF4EF500E6E0E50016E12
:10162000026A0AC503F50BC504F5D2EC8DF0144A25
:10163000152A1006D8A01106102806E11128D8A4F2
:1016400024EF8BF026EF8BF0FCEF8AF05EA02BEFFF
:101650008BF02DEF8BF04AEF8BF03BEF8BF0000E11
:10166000026E200E016E0AC503F50BC504F5D2EC1F
:101670008DF0164A172A1250165C1750800A0E6E0B
:101680001350800A0E58D8A048EF8BF04AEF8BF029
:101690002FEF8BF012004DC533F54EC534F54FC515
:1016A00035F550C536F5050E016E000E026E000EC2
:1016B000036E000E046E010E01EC89F001C537F5D2
:1016C00002C538F503C539F504C53AF500EC80F0DC
:1016D00033C54DF534C54EF535C54FF536C550F516
:1016E000000E016E000E026E480E036E430E046E75
:1016F0004DC505F54EC506F54FC507F550C508F5AE
:10170000EAEC8CF0D8B087EF8BF089EF8BF091EF9B
:101710008BF0000E4D6E000E4E6E480E4F6E430E57
:10172000506E50BE98EF8BF096EF8BF0A0EF8BF0E1
:10173000000E4D6E000E4E6E000E4F6E000E506E7F
:10174000000E376E000E386EC80E396E440E3A6EBB
:10175000000E1E6E000E1F6EC80E206E450E216E0E
:10176000000E056E000E066E340E076E430E086EF8
:101770004DC501F54EC502F54FC503F550C504F53D
:1017800036EC86F001C51AF502C51BF503C51CF53C
:1017900004C51DF55BEC82F01AC533F51BC534F5A5
:1017A0001CC535F51DC536F500EC80F033C543F595
:1017B00034C544F535C545F536C546F5E5EC8BF041
:1017C00043C54DF544C54EF51200453446344C6EC4
:1017D0004C50D8A4EEEF8BF0F0EF8BF0FAEF8BF0DB
:1017E000000E436E000E446E000E456E000E466EF7
:1017F00067EF8CF043C547F544C548F545C549F545
:1018000046C54AF5200E0AEF8CF0D8904A3249328C
:1018100048324732E82E05EF8CF047504B6E458E2C
:10182000FF0E4316FF0E4416FF0E4516000E461619
:10183000960E4C5E4CBE21EF8CF01FEF8CF037EF14
:101840008CF04C50800A970FD8B029EF8CF02BEF1A
:101850008CF02DEF8CF0F0EF8BF0D89046324532C3
:10186000443243324C3E2DEF8CF04FEF8CF01F0E84
:101870004C643DEF8CF03FEF8CF047EF8CF0F0EFD5
:101880008BF0D89043364436453646364C064C509D
:10189000D8A44DEF8CF04FEF8CF041EF8CF04B5013
:1018A000D8B455EF8CF057EF8CF05FEF8CF0461EFC
:1018B000451E441E436C000E44224522462243C569
:1018C00043F544C544F545C545F546C546F5120002
:1018D000010E216E9BC522F59CC523F5000E266ED8
:1018E0001F0E256E0501BE6BA6EF8CF02506D8A055
:1018F00026061C500F0B246E0A0E246082EF8CF01B
:1019000084EF8CF088EF8CF0300E24268AEF8CF078
:10191000570E24269F0E2524D96E050E2620DA6E3A
:1019200024C5DFF4216A2206D8A023061CC51EF5B3
:101930001DC51FF5040E206ED8901F321E32202EBA
:101940009CEF8CF01EC51CF51FC51DF526BEB2EF21
:101950008CF0265009E1020E255CD8A0B2EF8CF085
:10196000B4EF8CF0D9EF8CF01C501D10D8A4BBEF55
:101970008CF0BDEF8CF076EF8CF02150D8A4C3EF43
:101980008CF0C5EF8CF076EF8CF023BED0EF8CF0AE
:10199000235008E12204D8A0D0EF8CF0D2EF8CF0D5
:1019A000D9EF8CF05EB2D7EF8CF0D9EF8CF076EFF8
:1019B0008CF01AC511F51BC512F59F0E2524136E68
:1019C000050E2620146E22C515F523C516F558EC14
:1019D00090F01200000E0114096E000E02140A6E3F
:1019E000800E03140B6E7F0E04140C6E09500A1047
:1019F0000B100C10D8A4FFEF8CF001EF8DF009EF65
:101A00008DF0000E016E000E026E000E036E000ED1
:101A1000046E000E0514096E000E06140A6E800E88
:101A200007140B6E7F0E08140C6E09500A100B1071
:101A30000C10D8A41EEF8DF020EF8DF028EF8DF064
:101A4000000E056E000E066E000E076E000E086E8C
:101A500004AE2DEF8DF02FEF8DF038EF8DF0016C8F
:101A6000021ED8B0022A031ED8B0032A800E0456E4
:101A700008AE3DEF8DF03FEF8DF048EF8DF0056C37
:101A8000061ED8B0062A071ED8B0072A800E0856B0
:101A9000000E011A000E021A000E031A800E041A1C
:101AA000000E051A000E061A000E071A800E081AFC
:101AB0000550015C0650025807500358085004585E
:101AC000D8B065EF8DF067EF8DF06AEF8DF0D890AC
:101AD0006BEF8DF0D8801200000E096E000E086EBC
:101AE00001C5D9F402C5DAF4DEC4F6F4DDC4F7F4B6
:101AF000000EF86E0800F5502A0AD8A482EF8DF087
:101B000084EF8DF0B7EF8DF001C5D9F402C5DAF49A
:101B1000DE2A000EDD2203C5D9F404C5DAF4DFC4E1
:101B200005F5020EDE26DFC406F5000EDD2205C532
:101B3000D9F406C5DAF4DEC408F5DDC409F5CDEF45
:101B40008DF00A0E0802F3C405F5F4C406F5090287
:101B5000F350062607500524086E000E0620096E75
:101B600001C5D9F402C5DAF4DE2A000EDD2201C572
:101B7000D9F402C5DAF4DEC4F6F4DDC4F7F4000EDD
:101B8000F86E0800F550D00F076E090E0764CBEF12
:101B90008DF0CDEF8DF0A1EF8DF008C501F509C5F1
:101BA00002F5120003500410D8B4D9EF8DF0DBEF2A
:101BB0008DF0E4EF8DF003500410D8A4E2EF8DF027
:101BC000E4EF8DF0E9EF8DF001506EEC95F036EF1B
:101BD0008EF020EE09F00350D9260450DA22DE50B0
:101BE000DE10D8B4F6EF8DF0F8EF8DF013EF8EF035
:101BF00020EE09F00350D9260450DA2210EE02F04C
:101C00000350E1260450E222DE50E65CE650800AF2
:101C1000096EDE50800A0958D8B011EF8EF013EF2C
:101C20008EF036EF8EF020EE02F00350D9260450ED
:101C3000DA22DEC405F5DDC406F503C5D9F404C512
:101C4000DAF4DEC407F5DDC408F505500724D96EC3
:101C500006500820DA6E01C5DFF420EE02F00350D2
:101C6000D9260450DA22DE2A000EDD221200016E8F
:101C7000000184BF3EEF8EF040EF8EF09BEF8EF0C0
:101C80000150050D8F0EF324F66EFE0EF420F76E54
:101C9000F86A000EF8220800F5C484F00150050D22
:101CA000010EF326000EF4228F0EF324F66EFE0EC4
:101CB000F420F76EF86A000EF8220800F5C485F0EB
:101CC0000150050D020EF326000EF4228F0EF324B0
:101CD000F66EFE0EF420F76EF86A000EF822080089
:101CE000F550FC0B866F0150050D030EF326000E18
:101CF000F4228F0EF324F66EFE0EF420F76EF86ACF
:101D0000000EF8220800F5C489F00150050D040EFC
:101D1000F326000EF4228F0EF324F66EFE0EF4204E
:101D2000F76EF86A000EF8220800F5C48CF0C7922E
:101D3000848F9BEF8EF01200BF0E026E050E036EB5
:101D400049EC94F0BF0E0E6E050E0F6E730E106E02
:101D5000080E116E34EC91F0BF0E0B6E050E0C6E7A
:101D6000EE0E0D6EFF0E0E6EA7EC90F00BC5E3F5B8
:101D70000CC5E4F50501E351E411D8B4C2EF8EF0CF
:101D8000C4EF8EF0CCEF8EF0000E026E010E016EED
:101D9000ECEC93F0C4EF8EF0BF0E0B6E050E0C6EE4
:101DA000000E0D6E72EC91F0BF0E0B6E050E0C6EF8
:101DB000640E0D6E33EC94F0BF0E5C6E050E5D6E1E
:101DC000FEEC87F0EEEF8EF0BF0E076E050E086E8C
:101DD000DB0E096E050E0A6EA2EC93F0BF0E0E6EBE
:101DE000050E0F6E88EC94F00009D8A4FAEF8EF07F
:101DF000FCEF8EF0E4EF8EF01200066A04BE05EFF1
:101E00008FF003EF8FF00BEF8FF0036C041ED8B050
:101E1000042A010E066E02BE12EF8FF010EF8FF053
:101E200018EF8FF0016C021ED8B0022A010E061ABC
:101E3000000E086E000E076E03500410D8B423EF96
:101E40008FF025EF8FF04DEF8FF0010E056E2DEF27
:101E50008FF0D89003360436052A04AE32EF8FF0A7
:101E600034EF8FF029EF8FF0D89007360836035003
:101E7000015C04500258D8A040EF8FF042EF8FF081
:101E800047EF8FF00350015E0450025A0780D8904C
:101E900004320332052E34EF8FF00650D8B453EFDE
:101EA0008FF055EF8FF059EF8FF0076C081ED8B008
:101EB000082A07C501F508C502F51200066A02BE28
:101EC00066EF8FF064EF8FF06CEF8FF0016C021E05
:101ED000D8B0022A010E066E04BE73EF8FF071EFC8
:101EE0008FF077EF8FF0036C041ED8B0042A0350F4
:101EF0000410D8B47EEF8FF080EF8FF0A4EF8FF056
:101F0000010E056E88EF8FF0D89003360436052A4F
:101F100004AE8DEF8FF08FEF8FF084EF8FF00350D2
:101F2000015C04500258D8A098EF8FF09AEF8FF020
:101F30009EEF8FF00350015E0450025AD890043295
:101F40000332052E8FEF8FF00650D8B4AAEF8FF032
:101F5000ACEF8FF0B0EF8FF0016C021ED8B0022A08
:101F600001C501F502C502F51200BE6ABF6AC06A6A
:101F7000C16AC26AC36A0401026B0A6B126B1A6BF4
:101F8000226B2A6BC668C7688F0EC86EF70EC96EC3
:101F90000F0ECA6EFE0ECB6E0069F90E086F8F0E23
:101FA000106FF70E186F070E206F2869016B096B11
:101FB000116B196B216B296B03690B6913691B6921
:101FC000070E236F2B6904690C6914691C690F0ED5
:101FD000246F2C690201896B886B876B866B0A0EF4
:101FE0006B6F320E176F180E296F090E6A6F310E64
:101FF0000A6F0401056B066B076B0D6B0E6B0F6BA5
:10200000156B166B176B256B266B276B1200F40E86
:102010003E6EFF0E3F6E50C540F551C541F575EC63
:1020200094F048EF90F0550E076E050E086E050E01
:10203000096E5250D4EC93F0522AFA0E3E6EFF0E07
:102040003F6E75EC94F0000E5B6E000E5A6ED40E6F
:102050003E6EFF0E3F6E550E5A24D96E050E5B2064
:10206000DA6EDF50546E5450406E416A75EC94F055
:102070005A4A5B2A5BBE46EF90F05B5009E1050EC1
:102080005A5CD8A046EF90F048EF90F027EF90F020
:1020900053065328D8A44FEF90F051EF90F013EF70
:1020A00090F0FA0E3E6EFE0E3F6E75EC94F012004C
:1020B0005EA05DEF90F05FEF90F069EF90F013C5D8
:1020C0000AF514C50BF511C50CF512C50DF5DDECBF
:1020D00092F016BE70EF90F06EEF90F074EF90F00B
:1020E000000E166E000E156E000E196E000E186EA4
:1020F00086EF90F0000E026E200E016E11C503F502
:1021000012C504F5D2EC8DF0184A192A1550185C46
:102110001950800A176E1650800A1758D8A093EFEE
:1021200090F095EF90F07AEF90F05EB09AEF90F02B
:102130009CEF90F0A6EF90F013C50AF514C50BF5CF
:1021400011C50CF512C50DF5DDEC92F01200000E74
:10215000186E000E176E0DC507F50EC508F5050EB5
:10216000096E0B0E89EC93F0120E076E050E086EC9
:10217000050E096E0B0ED4EC93F0000E1A6E000ED5
:10218000196E120E1924D96E050E1A20DA6E195026
:102190000D24106E1A500E20116E10C5F6F411C5E4
:1021A000F7F4000EF86EDE500900F518D8B4DBEF36
:1021B00090F0DDEF90F0DFEF90F017681868194AA3
:1021C0001A2A1ABEEDEF90F01A5009E1050E195CBB
:1021D000D8A0EDEF90F0EFEF90F0C1EF90F017C5C1
:1021E0000BF518C50CF512004F6EB70E3E6EFE0EC5
:1021F0003F6E4FC540F5416A4FBC01EF91F004EFCF
:1022000091F0010E05EF91F0000E426E436A4FBA55
:102210000CEF91F00FEF91F0010E10EF91F0000E26
:10222000446E456A4FB817EF91F01AEF91F0010E26
:102230001BEF91F0000E466E476A4FC54EF5D890E1
:102240004E32070E4E164E50486E496A4FB02BEF75
:1022500091F02EEF91F0010E2FEF91F0000E4A6EEB
:102260004B6A75EC94F0120020EE01F00E50D92666
:102270000F50DA2210C5DFF420EE02F00E50D926FE
:102280000F50DA2211C5DFF40EC50BF50FC50CF5A2
:10229000FEEC94F010C503F5050EE6EC94F020EE8C
:1022A00002F00E50D9260F50DA22DF50036E110EC5
:1022B000E6EC94F020EE02F00E50D9260F50DA2210
:1022C000DF50036E120EE6EC94F00EC505F50FC557
:1022D00006F59BEC94F00EC503F50FC504F561EC13
:1022E00095F01200020E0D6478EF91F07AEF91F004
:1022F0007CEF91F0A8EF91F00E0E076E050E086EC0
:10230000010E096E060ED4EC93F0020E0D18D8A43F
:102310008CEF91F08EEF91F09BEF91F00E50200931
:102320000E6E0E50F70B0E6E0EC503F5060EE6ECA4
:1023300094F0A8EF91F00E50D70B0E6E0D38E842D6
:10234000F80B0E100E6E0EC503F5060EE6EC94F0BB
:1023500012000D6A0F0E076E050E086E010E096E53
:10236000000ED4EC93F00F500C0B0F6E0E0E076E98
:10237000050E086E010E096E010ED4EC93F00FB637
:10238000C4EF91F0C6EF91F0CEEF91F00E50D8B4BB
:10239000CCEF91F0CEEF91F0DBEF91F00FA4D3EF03
:1023A00091F0D5EF91F0D9EF91F0020E0D6EDBEFC9
:1023B00091F0010E0D6E0D501200606A020E616EFA
:1023C000626A6368F90E646E130E656E666A676A08
:1023D000686A6A6A6B6A7D0E6C6E6D6A7D0E6E6EDF
:1023E000B29CB29E67906792A29EA29C000E016E64
:1023F000000E026E000E036E3EEC95F0000E016EB4
:10240000000E026E000E036E37EC95F0000E016EAA
:10241000000E026E000E036E45EC95F0800E696EA4
:102420001200F40E3E6EFF0E3F6E50C540F551C5D2
:1024300041F575EC94F030EF92F0540E076E050EF6
:10244000086E010E096E5250D4EC93F0522AD10E50
:102450003E6EFF0E3F6E54C540F5416A75EC94F038
:1024600053065328D8A437EF92F039EF92F01DEFBE
:1024700092F0FA0E3E6EFE0E3F6E75EC94F0120076
:102480004AEF92F0AA0EE82EFED700D0200E015E91
:10249000000E025A025007E1200E015CD8B053EF43
:1024A00092F055EF92F042EF92F05BEF92F0050E52
:1024B000E82EFED700000106D8A00206012806E19A
:1024C0000228D8A466EF92F068EF92F057EF92F0EE
:1024D000120038C53CF539C53DF57DEF92F036C5A3
:1024E00027F537C528F53C0E296E050E2A6E3AC52C
:1024F0002BF53BC52CF56EEC84F03CC5F6F43DC5E0
:10250000F7F4000EF86E0800F5500009D8A48BEF20
:1025100092F08DEF92F06FEF92F0000E376E000E9A
:10252000366E12000E0E076E050E086E010E096E55
:10253000060ED4EC93F00E50280B0E6E200E0E18E3
:10254000D8A4A5EF92F0A7EF92F0ABEF92F0020EB5
:102550000D6EB9EF92F0080E0E18D8A4B2EF92F0FB
:10256000B4EF92F0B8EF92F0010E0D6EB9EF92F069
:102570000D6A0D501200C09A066AD2EF92F003C5A0
:10258000F6F404C5F7F4000EF86E0800F5505FECA1
:1025900094F0034A042A000E026E0A0E016E40EC0B
:1025A00092F0062A0550065CD8A0D9EF92F0DBEF36
:1025B00092F0BFEF92F0C08A1200000E106E000E73
:1025C0000F6EEEEF92F00EC501F5026A0CC503F531
:1025D0000DC504F5D2EC8DF00F4A102A0F500A24D5
:1025E000D96E10500B20DA6EDF500E6E0E50D8A44C
:1025F000FCEF92F0FEEF92F0E3EF92F01200D69A29
:10260000AF90D680000E016E000E026E000E036EBB
:102610005AEC95F0B490D682000E016E000E026E58
:10262000000E036E53EC95F0B890D684000E016E48
:10263000000E026E000E036E4CEC95F0120050413D
:102640005F4D494E000050415F4C4F5700005041D4
:102650005F484947480050415F4D41580000314DA7
:10266000627073000000324D6270730000003235FA
:10267000304B627073003E0EF66E260EF76E010E42
:10268000F86E01EE60F110EE38F00900F5C4EEF4DA
:10269000E550E150FAE101EE98F12A0EEE6AE80603
:1026A000FDE15E6A000128EF95F008BE5AEF93F055
:1026B0005CEF93F062EF93F007C507F508C508F5E6
:1026C0006EEF93F007C509F508C50AF5091E0A1E45
:1026D000094A0A2A09C507F50AC508F51200C09A71
:1026E000066A7EEF93F0FF0E5FEC94F003C5D9F419
:1026F00004C5DAF4DF6E034A042A062A0550065C94
:10270000D8A085EF93F087EF93F073EF93F0C08A32
:1027100012000A6E0950D8B490EF93F092EF93F044
:10272000A1EF93F0C09A0A501F0B20095FEC94F0C0
:1027300007C503F508C504F509C505F5BBEC92F01E
:10274000C08A1200C09A610E5FEC94F009C503F5CF
:102750000AC504F520EE02F00750D9260850DA2207
:10276000DF50056E6FEC93F0C08A400E036E070ECB
:10277000E6EC94F01200000E0501D46F000ED56F48
:10278000200ED66F420ED76FD4C5D8F5D5C5D9F572
:10279000D6C5DAF5D7C5DBF5DC6BD80E576E050E5E
:1027A000586E04EC94F012000A6E0950D8B4DBEFB6
:1027B00093F0DDEF93F0EBEF93F0C09A0A501F0B0C
:1027C0005FEC94F007C503F508C504F509C505F5E8
:1027D0006FEC93F0C08A1200F6EF93F0150E036EC3
:1027E000C60EE82EFED7032EFCD700D00106D8A0D7
:1027F0000206012806E10228D8A401EF94F003EFB5
:1028000094F0EEEF93F0120057C5D9F458C5DAF4FE
:10281000DEC451F5DEC452F5DEC453F5DEC454F512
:102820001CEC94F020EE04F05750D9265850DA22D0
:10283000DF50CCEC94F0120051C54DF552C54EF569
:1028400053C54FF554C550F54BEC8BF04DC555F5C0
:102850004EC556F555C501F556C502F567EC95F020
:102860006CEC95F012000E0E076E050E086E010E50
:10287000096E040ED4EC93F00E500F0B0E6E0D3853
:10288000F00B0E100E6E0EC503F5040EE6EC94F080
:102890001200000E37EC8EF020EE01F00250D92627
:1028A0000350DA22730EDF6E20EE02F00250D926BA
:1028B0000350DA22200EDF6EC89AC8981200016E0B
:1028C0000001878586510309866F836B010E826F35
:1028D00001C581F0B1A06FEF94F071EF94F06AEF51
:1028E00094F080C002F502501200400E4C6E050EAE
:1028F0004D6E000E366E000E376E3EC538F53FC584
:1029000039F54C0E3A6E050E3B6E69EC92F01200F2
:102910000EC50BF50FC50CF5FEEC94F0106E10AC67
:1029200094EF94F096EF94F099EF94F0010E9AEFF3
:1029300094F0000E120005C5D9F406C5DAF4DF6A7A
:10294000C0982B0E036E000EE6EC94F0C088300E9B
:10295000036E070EE6EC94F0120009EC95F0D68EAB
:102960009CEC8EF0080E016E280E026E010E036EB6
:1029700030EC95F014EC95F012000D0E076E050E7C
:10298000086E010E096E060ED4EC93F0D8900D304F
:10299000030B0D6E0D501200016E0150D8B4D3EF31
:1029A00094F0D5EF94F0D8EF94F0C186D9EF94F07D
:1029B000C19612000D0E076E050E086E010E096E0F
:1029C000040ED4EC93F00D380F0B1200046EC09A75
:1029D00004501F0B20095FEC94F003505FEC94F05F
:1029E000C08A1200A194A192A1900001846B040EF0
:1029F000856F866B896B8C6B878512000D0E076E59
:102A0000050E086E010E096E070ED4EC93F00D5002
:102A100012001EEC95F0B5EC8FF0DDEC91F0F2ECCD
:102A200094F0FFEC92F01200120E026EC00E016ED6
:102A300067EC95F06CEC95F0C1961200600E000109
:102A4000AD6FAF6BB36B080EB16FB06BAC6B1200B8
:102A5000ADEC94F0BBEC93F02AEF95F0FEEFFFF0B5
:102A600001C598F502C599F503C59AF5120001C58F
:102A7000CEF502C5CFF503C5D0F5120001C5D1F5DD
:102A800002C5D2F503C5D3F5120001C5CBF502C5C9
:102A9000CCF503C5CDF5120001C5C2F502C5C3F5DD
:102AA00003C5C4F5120001C5C5F502C5C6F503C5C9
:102AB000C7F5120001C5C8F502C5C9F503C5CAF5B9
:102AC0001200C09AE20E5FEC94F0C08A120001C5B9
:0E2AD0006BF402506C6E12006984120012004A
:04FFFC003BEF93F054
:020000040020DA
:10000000FFFFFFFFFFFFFFFFFFFFFFFFFFFFFFFF00
:10001000FFFFFFFFFFFFFFFFFFFFFFFFFFFFFFFFF0
:10002000FFFFFFFFFFFFFFFFFFFFFFFFFFFFFFFFE0
:10003000FFFFFFFFFFFFFFFFFFFFFFFFFFFFFFFFD0
:020000040030CA
:080000008FFFF7FF9FFFFFFFD8
:01000900FFF7
:00000001FF
